{
	"smart-contract/EHRSharing.sol": {
		"EHRSharing": {
			"abi": [
				{
					"inputs": [
						{
							"internalType": "bytes32",
							"name": "hashedPatientID",
							"type": "bytes32"
						}
					],
					"name": "access",
					"outputs": [
						{
							"components": [
								{
									"internalType": "string",
									"name": "dataGeneratorID",
									"type": "string"
								},
								{
									"internalType": "string",
									"name": "recordID",
									"type": "string"
								}
							],
							"internalType": "struct EHRSharing.Record[]",
							"name": "",
							"type": "tuple[]"
						}
					],
					"stateMutability": "view",
					"type": "function"
				},
				{
					"inputs": [
						{
							"internalType": "bytes32",
							"name": "hashedPatientID",
							"type": "bytes32"
						},
						{
							"internalType": "string",
							"name": "dataGeneratorID",
							"type": "string"
						},
						{
							"internalType": "string",
							"name": "recordID",
							"type": "string"
						}
					],
					"name": "index",
					"outputs": [],
					"stateMutability": "nonpayable",
					"type": "function"
				}
			],
			"devdoc": {
				"kind": "dev",
				"methods": {
					"access(bytes32)": {
						"params": {
							"hashedPatientID": "The hashed patient identity"
						},
						"returns": {
							"_0": "An array of records"
						}
					},
					"index(bytes32,string,string)": {
						"params": {
							"dataGeneratorID": "The hospital/doctor/lab ID that created the record",
							"hashedPatientID": "The hashed identifier for the patient",
							"recordID": "A pointer to the record (e.g., IPFS hash, database ID)"
						}
					}
				},
				"version": 1
			},
			"evm": {
				"assembly": "    /* \"smart-contract/EHRSharing.sol\":60:1004  contract EHRSharing {... */\n  mstore(0x40, 0x80)\n  callvalue\n  dup1\n  iszero\n  tag_1\n  jumpi\n  revert(0x00, 0x00)\ntag_1:\n  pop\n  dataSize(sub_0)\n  dup1\n  dataOffset(sub_0)\n  0x00\n  codecopy\n  0x00\n  return\nstop\n\nsub_0: assembly {\n        /* \"smart-contract/EHRSharing.sol\":60:1004  contract EHRSharing {... */\n      mstore(0x40, 0x80)\n      callvalue\n      dup1\n      iszero\n      tag_1\n      jumpi\n      revert(0x00, 0x00)\n    tag_1:\n      pop\n      jumpi(tag_2, lt(calldatasize, 0x04))\n      shr(0xe0, calldataload(0x00))\n      dup1\n      0x696b3141\n      eq\n      tag_3\n      jumpi\n      dup1\n      0x6d43c4c9\n      eq\n      tag_4\n      jumpi\n    tag_2:\n      revert(0x00, 0x00)\n        /* \"smart-contract/EHRSharing.sol\":522:707  function index(bytes32 hashedPatientID, string memory dataGeneratorID, string memory recordID) public {... */\n    tag_3:\n      tag_5\n      0x04\n      dup1\n      calldatasize\n      sub\n      dup2\n      add\n      swap1\n      tag_6\n      swap2\n      swap1\n      tag_7\n      jump\t// in\n    tag_6:\n      tag_8\n      jump\t// in\n    tag_5:\n      stop\n        /* \"smart-contract/EHRSharing.sol\":872:1001  function access(bytes32 hashedPatientID) public view returns (Record[] memory) {... */\n    tag_4:\n      tag_9\n      0x04\n      dup1\n      calldatasize\n      sub\n      dup2\n      add\n      swap1\n      tag_10\n      swap2\n      swap1\n      tag_11\n      jump\t// in\n    tag_10:\n      tag_12\n      jump\t// in\n    tag_9:\n      mload(0x40)\n      tag_13\n      swap2\n      swap1\n      tag_14\n      jump\t// in\n    tag_13:\n      mload(0x40)\n      dup1\n      swap2\n      sub\n      swap1\n      return\n        /* \"smart-contract/EHRSharing.sol\":522:707  function index(bytes32 hashedPatientID, string memory dataGeneratorID, string memory recordID) public {... */\n    tag_8:\n        /* \"smart-contract/EHRSharing.sol\":635:642  records */\n      0x00\n        /* \"smart-contract/EHRSharing.sol\":635:659  records[hashedPatientID] */\n      0x00\n        /* \"smart-contract/EHRSharing.sol\":643:658  hashedPatientID */\n      dup5\n        /* \"smart-contract/EHRSharing.sol\":635:659  records[hashedPatientID] */\n      dup2\n      mstore\n      0x20\n      add\n      swap1\n      dup2\n      mstore\n      0x20\n      add\n      0x00\n      keccak256\n        /* \"smart-contract/EHRSharing.sol\":665:698  Record(dataGeneratorID, recordID) */\n      mload(0x40)\n      dup1\n      0x40\n      add\n      0x40\n      mstore\n      dup1\n        /* \"smart-contract/EHRSharing.sol\":672:687  dataGeneratorID */\n      dup5\n        /* \"smart-contract/EHRSharing.sol\":665:698  Record(dataGeneratorID, recordID) */\n      dup2\n      mstore\n      0x20\n      add\n        /* \"smart-contract/EHRSharing.sol\":689:697  recordID */\n      dup4\n        /* \"smart-contract/EHRSharing.sol\":665:698  Record(dataGeneratorID, recordID) */\n      dup2\n      mstore\n      pop\n        /* \"smart-contract/EHRSharing.sol\":635:699  records[hashedPatientID].push(Record(dataGeneratorID, recordID)) */\n      swap1\n      dup1\n      0x01\n      dup2\n      sload\n      add\n      dup1\n      dup3\n      sstore\n      dup1\n      swap2\n      pop\n      pop\n      0x01\n      swap1\n      sub\n      swap1\n      0x00\n      mstore\n      keccak256(0x00, 0x20)\n      swap1\n      0x02\n      mul\n      add\n      0x00\n      swap1\n      swap2\n      swap1\n      swap2\n      swap1\n      swap2\n      pop\n      0x00\n      dup3\n      add\n      mload\n      dup2\n      0x00\n      add\n      swap1\n      dup2\n      tag_17\n      swap2\n      swap1\n      tag_18\n      jump\t// in\n    tag_17:\n      pop\n      0x20\n      dup3\n      add\n      mload\n      dup2\n      0x01\n      add\n      swap1\n      dup2\n      tag_19\n      swap2\n      swap1\n      tag_18\n      jump\t// in\n    tag_19:\n      pop\n      pop\n      pop\n        /* \"smart-contract/EHRSharing.sol\":522:707  function index(bytes32 hashedPatientID, string memory dataGeneratorID, string memory recordID) public {... */\n      pop\n      pop\n      pop\n      jump\t// out\n        /* \"smart-contract/EHRSharing.sol\":872:1001  function access(bytes32 hashedPatientID) public view returns (Record[] memory) {... */\n    tag_12:\n        /* \"smart-contract/EHRSharing.sol\":934:949  Record[] memory */\n      0x60\n        /* \"smart-contract/EHRSharing.sol\":969:976  records */\n      0x00\n        /* \"smart-contract/EHRSharing.sol\":969:993  records[hashedPatientID] */\n      0x00\n        /* \"smart-contract/EHRSharing.sol\":977:992  hashedPatientID */\n      dup4\n        /* \"smart-contract/EHRSharing.sol\":969:993  records[hashedPatientID] */\n      dup2\n      mstore\n      0x20\n      add\n      swap1\n      dup2\n      mstore\n      0x20\n      add\n      0x00\n      keccak256\n        /* \"smart-contract/EHRSharing.sol\":962:993  return records[hashedPatientID] */\n      dup1\n      sload\n      dup1\n      0x20\n      mul\n      0x20\n      add\n      mload(0x40)\n      swap1\n      dup2\n      add\n      0x40\n      mstore\n      dup1\n      swap3\n      swap2\n      swap1\n      dup2\n      dup2\n      mstore\n      0x20\n      add\n      0x00\n      swap1\n    tag_21:\n      dup3\n      dup3\n      lt\n      iszero\n      tag_22\n      jumpi\n      dup4\n      dup3\n      swap1\n      0x00\n      mstore\n      keccak256(0x00, 0x20)\n      swap1\n      0x02\n      mul\n      add\n      mload(0x40)\n      dup1\n      0x40\n      add\n      0x40\n      mstore\n      swap1\n      dup2\n      0x00\n      dup3\n      add\n      dup1\n      sload\n      tag_24\n      swap1\n      tag_25\n      jump\t// in\n    tag_24:\n      dup1\n      0x1f\n      add\n      0x20\n      dup1\n      swap2\n      div\n      mul\n      0x20\n      add\n      mload(0x40)\n      swap1\n      dup2\n      add\n      0x40\n      mstore\n      dup1\n      swap3\n      swap2\n      swap1\n      dup2\n      dup2\n      mstore\n      0x20\n      add\n      dup3\n      dup1\n      sload\n      tag_26\n      swap1\n      tag_25\n      jump\t// in\n    tag_26:\n      dup1\n      iszero\n      tag_27\n      jumpi\n      dup1\n      0x1f\n      lt\n      tag_28\n      jumpi\n      0x0100\n      dup1\n      dup4\n      sload\n      div\n      mul\n      dup4\n      mstore\n      swap2\n      0x20\n      add\n      swap2\n      jump(tag_27)\n    tag_28:\n      dup3\n      add\n      swap2\n      swap1\n      0x00\n      mstore\n      keccak256(0x00, 0x20)\n      swap1\n    tag_29:\n      dup2\n      sload\n      dup2\n      mstore\n      swap1\n      0x01\n      add\n      swap1\n      0x20\n      add\n      dup1\n      dup4\n      gt\n      tag_29\n      jumpi\n      dup3\n      swap1\n      sub\n      0x1f\n      and\n      dup3\n      add\n      swap2\n    tag_27:\n      pop\n      pop\n      pop\n      pop\n      pop\n      dup2\n      mstore\n      0x20\n      add\n      0x01\n      dup3\n      add\n      dup1\n      sload\n      tag_30\n      swap1\n      tag_25\n      jump\t// in\n    tag_30:\n      dup1\n      0x1f\n      add\n      0x20\n      dup1\n      swap2\n      div\n      mul\n      0x20\n      add\n      mload(0x40)\n      swap1\n      dup2\n      add\n      0x40\n      mstore\n      dup1\n      swap3\n      swap2\n      swap1\n      dup2\n      dup2\n      mstore\n      0x20\n      add\n      dup3\n      dup1\n      sload\n      tag_31\n      swap1\n      tag_25\n      jump\t// in\n    tag_31:\n      dup1\n      iszero\n      tag_32\n      jumpi\n      dup1\n      0x1f\n      lt\n      tag_33\n      jumpi\n      0x0100\n      dup1\n      dup4\n      sload\n      div\n      mul\n      dup4\n      mstore\n      swap2\n      0x20\n      add\n      swap2\n      jump(tag_32)\n    tag_33:\n      dup3\n      add\n      swap2\n      swap1\n      0x00\n      mstore\n      keccak256(0x00, 0x20)\n      swap1\n    tag_34:\n      dup2\n      sload\n      dup2\n      mstore\n      swap1\n      0x01\n      add\n      swap1\n      0x20\n      add\n      dup1\n      dup4\n      gt\n      tag_34\n      jumpi\n      dup3\n      swap1\n      sub\n      0x1f\n      and\n      dup3\n      add\n      swap2\n    tag_32:\n      pop\n      pop\n      pop\n      pop\n      pop\n      dup2\n      mstore\n      pop\n      pop\n      dup2\n      mstore\n      0x20\n      add\n      swap1\n      0x01\n      add\n      swap1\n      jump(tag_21)\n    tag_22:\n      pop\n      pop\n      pop\n      pop\n      swap1\n      pop\n        /* \"smart-contract/EHRSharing.sol\":872:1001  function access(bytes32 hashedPatientID) public view returns (Record[] memory) {... */\n      swap2\n      swap1\n      pop\n      jump\t// out\n        /* \"#utility.yul\":7:82   */\n    tag_35:\n        /* \"#utility.yul\":40:46   */\n      0x00\n        /* \"#utility.yul\":73:75   */\n      0x40\n        /* \"#utility.yul\":67:76   */\n      mload\n        /* \"#utility.yul\":57:76   */\n      swap1\n      pop\n        /* \"#utility.yul\":7:82   */\n      swap1\n      jump\t// out\n        /* \"#utility.yul\":88:205   */\n    tag_36:\n        /* \"#utility.yul\":197:198   */\n      0x00\n        /* \"#utility.yul\":194:195   */\n      0x00\n        /* \"#utility.yul\":187:199   */\n      revert\n        /* \"#utility.yul\":211:328   */\n    tag_37:\n        /* \"#utility.yul\":320:321   */\n      0x00\n        /* \"#utility.yul\":317:318   */\n      0x00\n        /* \"#utility.yul\":310:322   */\n      revert\n        /* \"#utility.yul\":334:411   */\n    tag_38:\n        /* \"#utility.yul\":371:378   */\n      0x00\n        /* \"#utility.yul\":400:405   */\n      dup2\n        /* \"#utility.yul\":389:405   */\n      swap1\n      pop\n        /* \"#utility.yul\":334:411   */\n      swap2\n      swap1\n      pop\n      jump\t// out\n        /* \"#utility.yul\":417:539   */\n    tag_39:\n        /* \"#utility.yul\":490:514   */\n      tag_85\n        /* \"#utility.yul\":508:513   */\n      dup2\n        /* \"#utility.yul\":490:514   */\n      tag_38\n      jump\t// in\n    tag_85:\n        /* \"#utility.yul\":483:488   */\n      dup2\n        /* \"#utility.yul\":480:515   */\n      eq\n        /* \"#utility.yul\":470:533   */\n      tag_86\n      jumpi\n        /* \"#utility.yul\":529:530   */\n      0x00\n        /* \"#utility.yul\":526:527   */\n      0x00\n        /* \"#utility.yul\":519:531   */\n      revert\n        /* \"#utility.yul\":470:533   */\n    tag_86:\n        /* \"#utility.yul\":417:539   */\n      pop\n      jump\t// out\n        /* \"#utility.yul\":545:684   */\n    tag_40:\n        /* \"#utility.yul\":591:596   */\n      0x00\n        /* \"#utility.yul\":629:635   */\n      dup2\n        /* \"#utility.yul\":616:636   */\n      calldataload\n        /* \"#utility.yul\":607:636   */\n      swap1\n      pop\n        /* \"#utility.yul\":645:678   */\n      tag_88\n        /* \"#utility.yul\":672:677   */\n      dup2\n        /* \"#utility.yul\":645:678   */\n      tag_39\n      jump\t// in\n    tag_88:\n        /* \"#utility.yul\":545:684   */\n      swap3\n      swap2\n      pop\n      pop\n      jump\t// out\n        /* \"#utility.yul\":690:807   */\n    tag_41:\n        /* \"#utility.yul\":799:800   */\n      0x00\n        /* \"#utility.yul\":796:797   */\n      0x00\n        /* \"#utility.yul\":789:801   */\n      revert\n        /* \"#utility.yul\":813:930   */\n    tag_42:\n        /* \"#utility.yul\":922:923   */\n      0x00\n        /* \"#utility.yul\":919:920   */\n      0x00\n        /* \"#utility.yul\":912:924   */\n      revert\n        /* \"#utility.yul\":936:1038   */\n    tag_43:\n        /* \"#utility.yul\":977:983   */\n      0x00\n        /* \"#utility.yul\":1028:1030   */\n      0x1f\n        /* \"#utility.yul\":1024:1031   */\n      not\n        /* \"#utility.yul\":1019:1021   */\n      0x1f\n        /* \"#utility.yul\":1012:1017   */\n      dup4\n        /* \"#utility.yul\":1008:1022   */\n      add\n        /* \"#utility.yul\":1004:1032   */\n      and\n        /* \"#utility.yul\":994:1032   */\n      swap1\n      pop\n        /* \"#utility.yul\":936:1038   */\n      swap2\n      swap1\n      pop\n      jump\t// out\n        /* \"#utility.yul\":1044:1224   */\n    tag_44:\n        /* \"#utility.yul\":1092:1169   */\n      0x4e487b7100000000000000000000000000000000000000000000000000000000\n        /* \"#utility.yul\":1089:1090   */\n      0x00\n        /* \"#utility.yul\":1082:1170   */\n      mstore\n        /* \"#utility.yul\":1189:1193   */\n      0x41\n        /* \"#utility.yul\":1186:1187   */\n      0x04\n        /* \"#utility.yul\":1179:1194   */\n      mstore\n        /* \"#utility.yul\":1213:1217   */\n      0x24\n        /* \"#utility.yul\":1210:1211   */\n      0x00\n        /* \"#utility.yul\":1203:1218   */\n      revert\n        /* \"#utility.yul\":1230:1511   */\n    tag_45:\n        /* \"#utility.yul\":1313:1340   */\n      tag_94\n        /* \"#utility.yul\":1335:1339   */\n      dup3\n        /* \"#utility.yul\":1313:1340   */\n      tag_43\n      jump\t// in\n    tag_94:\n        /* \"#utility.yul\":1305:1311   */\n      dup2\n        /* \"#utility.yul\":1301:1341   */\n      add\n        /* \"#utility.yul\":1443:1449   */\n      dup2\n        /* \"#utility.yul\":1431:1441   */\n      dup2\n        /* \"#utility.yul\":1428:1450   */\n      lt\n        /* \"#utility.yul\":1407:1425   */\n      0xffffffffffffffff\n        /* \"#utility.yul\":1395:1405   */\n      dup3\n        /* \"#utility.yul\":1392:1426   */\n      gt\n        /* \"#utility.yul\":1389:1451   */\n      or\n        /* \"#utility.yul\":1386:1474   */\n      iszero\n      tag_95\n      jumpi\n        /* \"#utility.yul\":1454:1472   */\n      tag_96\n      tag_44\n      jump\t// in\n    tag_96:\n        /* \"#utility.yul\":1386:1474   */\n    tag_95:\n        /* \"#utility.yul\":1494:1504   */\n      dup1\n        /* \"#utility.yul\":1490:1492   */\n      0x40\n        /* \"#utility.yul\":1483:1505   */\n      mstore\n        /* \"#utility.yul\":1273:1511   */\n      pop\n        /* \"#utility.yul\":1230:1511   */\n      pop\n      pop\n      jump\t// out\n        /* \"#utility.yul\":1517:1646   */\n    tag_46:\n        /* \"#utility.yul\":1551:1557   */\n      0x00\n        /* \"#utility.yul\":1578:1598   */\n      tag_98\n      tag_35\n      jump\t// in\n    tag_98:\n        /* \"#utility.yul\":1568:1598   */\n      swap1\n      pop\n        /* \"#utility.yul\":1607:1640   */\n      tag_99\n        /* \"#utility.yul\":1635:1639   */\n      dup3\n        /* \"#utility.yul\":1627:1633   */\n      dup3\n        /* \"#utility.yul\":1607:1640   */\n      tag_45\n      jump\t// in\n    tag_99:\n        /* \"#utility.yul\":1517:1646   */\n      swap2\n      swap1\n      pop\n      jump\t// out\n        /* \"#utility.yul\":1652:1960   */\n    tag_47:\n        /* \"#utility.yul\":1714:1718   */\n      0x00\n        /* \"#utility.yul\":1804:1822   */\n      0xffffffffffffffff\n        /* \"#utility.yul\":1796:1802   */\n      dup3\n        /* \"#utility.yul\":1793:1823   */\n      gt\n        /* \"#utility.yul\":1790:1846   */\n      iszero\n      tag_101\n      jumpi\n        /* \"#utility.yul\":1826:1844   */\n      tag_102\n      tag_44\n      jump\t// in\n    tag_102:\n        /* \"#utility.yul\":1790:1846   */\n    tag_101:\n        /* \"#utility.yul\":1864:1893   */\n      tag_103\n        /* \"#utility.yul\":1886:1892   */\n      dup3\n        /* \"#utility.yul\":1864:1893   */\n      tag_43\n      jump\t// in\n    tag_103:\n        /* \"#utility.yul\":1856:1893   */\n      swap1\n      pop\n        /* \"#utility.yul\":1948:1952   */\n      0x20\n        /* \"#utility.yul\":1942:1946   */\n      dup2\n        /* \"#utility.yul\":1938:1953   */\n      add\n        /* \"#utility.yul\":1930:1953   */\n      swap1\n      pop\n        /* \"#utility.yul\":1652:1960   */\n      swap2\n      swap1\n      pop\n      jump\t// out\n        /* \"#utility.yul\":1966:2114   */\n    tag_48:\n        /* \"#utility.yul\":2064:2070   */\n      dup3\n        /* \"#utility.yul\":2059:2062   */\n      dup2\n        /* \"#utility.yul\":2054:2057   */\n      dup4\n        /* \"#utility.yul\":2041:2071   */\n      calldatacopy\n        /* \"#utility.yul\":2105:2106   */\n      0x00\n        /* \"#utility.yul\":2096:2102   */\n      dup4\n        /* \"#utility.yul\":2091:2094   */\n      dup4\n        /* \"#utility.yul\":2087:2103   */\n      add\n        /* \"#utility.yul\":2080:2107   */\n      mstore\n        /* \"#utility.yul\":1966:2114   */\n      pop\n      pop\n      pop\n      jump\t// out\n        /* \"#utility.yul\":2120:2545   */\n    tag_49:\n        /* \"#utility.yul\":2198:2203   */\n      0x00\n        /* \"#utility.yul\":2223:2289   */\n      tag_106\n        /* \"#utility.yul\":2239:2288   */\n      tag_107\n        /* \"#utility.yul\":2281:2287   */\n      dup5\n        /* \"#utility.yul\":2239:2288   */\n      tag_47\n      jump\t// in\n    tag_107:\n        /* \"#utility.yul\":2223:2289   */\n      tag_46\n      jump\t// in\n    tag_106:\n        /* \"#utility.yul\":2214:2289   */\n      swap1\n      pop\n        /* \"#utility.yul\":2312:2318   */\n      dup3\n        /* \"#utility.yul\":2305:2310   */\n      dup2\n        /* \"#utility.yul\":2298:2319   */\n      mstore\n        /* \"#utility.yul\":2350:2354   */\n      0x20\n        /* \"#utility.yul\":2343:2348   */\n      dup2\n        /* \"#utility.yul\":2339:2355   */\n      add\n        /* \"#utility.yul\":2388:2391   */\n      dup5\n        /* \"#utility.yul\":2379:2385   */\n      dup5\n        /* \"#utility.yul\":2374:2377   */\n      dup5\n        /* \"#utility.yul\":2370:2386   */\n      add\n        /* \"#utility.yul\":2367:2392   */\n      gt\n        /* \"#utility.yul\":2364:2476   */\n      iszero\n      tag_108\n      jumpi\n        /* \"#utility.yul\":2395:2474   */\n      tag_109\n      tag_42\n      jump\t// in\n    tag_109:\n        /* \"#utility.yul\":2364:2476   */\n    tag_108:\n        /* \"#utility.yul\":2485:2539   */\n      tag_110\n        /* \"#utility.yul\":2532:2538   */\n      dup5\n        /* \"#utility.yul\":2527:2530   */\n      dup3\n        /* \"#utility.yul\":2522:2525   */\n      dup6\n        /* \"#utility.yul\":2485:2539   */\n      tag_48\n      jump\t// in\n    tag_110:\n        /* \"#utility.yul\":2204:2545   */\n      pop\n        /* \"#utility.yul\":2120:2545   */\n      swap4\n      swap3\n      pop\n      pop\n      pop\n      jump\t// out\n        /* \"#utility.yul\":2565:2905   */\n    tag_50:\n        /* \"#utility.yul\":2621:2626   */\n      0x00\n        /* \"#utility.yul\":2670:2673   */\n      dup3\n        /* \"#utility.yul\":2663:2667   */\n      0x1f\n        /* \"#utility.yul\":2655:2661   */\n      dup4\n        /* \"#utility.yul\":2651:2668   */\n      add\n        /* \"#utility.yul\":2647:2674   */\n      slt\n        /* \"#utility.yul\":2637:2759   */\n      tag_112\n      jumpi\n        /* \"#utility.yul\":2678:2757   */\n      tag_113\n      tag_41\n      jump\t// in\n    tag_113:\n        /* \"#utility.yul\":2637:2759   */\n    tag_112:\n        /* \"#utility.yul\":2795:2801   */\n      dup2\n        /* \"#utility.yul\":2782:2802   */\n      calldataload\n        /* \"#utility.yul\":2820:2899   */\n      tag_114\n        /* \"#utility.yul\":2895:2898   */\n      dup5\n        /* \"#utility.yul\":2887:2893   */\n      dup3\n        /* \"#utility.yul\":2880:2884   */\n      0x20\n        /* \"#utility.yul\":2872:2878   */\n      dup7\n        /* \"#utility.yul\":2868:2885   */\n      add\n        /* \"#utility.yul\":2820:2899   */\n      tag_49\n      jump\t// in\n    tag_114:\n        /* \"#utility.yul\":2811:2899   */\n      swap2\n      pop\n        /* \"#utility.yul\":2627:2905   */\n      pop\n        /* \"#utility.yul\":2565:2905   */\n      swap3\n      swap2\n      pop\n      pop\n      jump\t// out\n        /* \"#utility.yul\":2911:3890   */\n    tag_7:\n        /* \"#utility.yul\":3008:3014   */\n      0x00\n        /* \"#utility.yul\":3016:3022   */\n      0x00\n        /* \"#utility.yul\":3024:3030   */\n      0x00\n        /* \"#utility.yul\":3073:3075   */\n      0x60\n        /* \"#utility.yul\":3061:3070   */\n      dup5\n        /* \"#utility.yul\":3052:3059   */\n      dup7\n        /* \"#utility.yul\":3048:3071   */\n      sub\n        /* \"#utility.yul\":3044:3076   */\n      slt\n        /* \"#utility.yul\":3041:3160   */\n      iszero\n      tag_116\n      jumpi\n        /* \"#utility.yul\":3079:3158   */\n      tag_117\n      tag_36\n      jump\t// in\n    tag_117:\n        /* \"#utility.yul\":3041:3160   */\n    tag_116:\n        /* \"#utility.yul\":3199:3200   */\n      0x00\n        /* \"#utility.yul\":3224:3277   */\n      tag_118\n        /* \"#utility.yul\":3269:3276   */\n      dup7\n        /* \"#utility.yul\":3260:3266   */\n      dup3\n        /* \"#utility.yul\":3249:3258   */\n      dup8\n        /* \"#utility.yul\":3245:3267   */\n      add\n        /* \"#utility.yul\":3224:3277   */\n      tag_40\n      jump\t// in\n    tag_118:\n        /* \"#utility.yul\":3214:3277   */\n      swap4\n      pop\n        /* \"#utility.yul\":3170:3287   */\n      pop\n        /* \"#utility.yul\":3354:3356   */\n      0x20\n        /* \"#utility.yul\":3343:3352   */\n      dup5\n        /* \"#utility.yul\":3339:3357   */\n      add\n        /* \"#utility.yul\":3326:3358   */\n      calldataload\n        /* \"#utility.yul\":3385:3403   */\n      0xffffffffffffffff\n        /* \"#utility.yul\":3377:3383   */\n      dup2\n        /* \"#utility.yul\":3374:3404   */\n      gt\n        /* \"#utility.yul\":3371:3488   */\n      iszero\n      tag_119\n      jumpi\n        /* \"#utility.yul\":3407:3486   */\n      tag_120\n      tag_37\n      jump\t// in\n    tag_120:\n        /* \"#utility.yul\":3371:3488   */\n    tag_119:\n        /* \"#utility.yul\":3512:3575   */\n      tag_121\n        /* \"#utility.yul\":3567:3574   */\n      dup7\n        /* \"#utility.yul\":3558:3564   */\n      dup3\n        /* \"#utility.yul\":3547:3556   */\n      dup8\n        /* \"#utility.yul\":3543:3565   */\n      add\n        /* \"#utility.yul\":3512:3575   */\n      tag_50\n      jump\t// in\n    tag_121:\n        /* \"#utility.yul\":3502:3575   */\n      swap3\n      pop\n        /* \"#utility.yul\":3297:3585   */\n      pop\n        /* \"#utility.yul\":3652:3654   */\n      0x40\n        /* \"#utility.yul\":3641:3650   */\n      dup5\n        /* \"#utility.yul\":3637:3655   */\n      add\n        /* \"#utility.yul\":3624:3656   */\n      calldataload\n        /* \"#utility.yul\":3683:3701   */\n      0xffffffffffffffff\n        /* \"#utility.yul\":3675:3681   */\n      dup2\n        /* \"#utility.yul\":3672:3702   */\n      gt\n        /* \"#utility.yul\":3669:3786   */\n      iszero\n      tag_122\n      jumpi\n        /* \"#utility.yul\":3705:3784   */\n      tag_123\n      tag_37\n      jump\t// in\n    tag_123:\n        /* \"#utility.yul\":3669:3786   */\n    tag_122:\n        /* \"#utility.yul\":3810:3873   */\n      tag_124\n        /* \"#utility.yul\":3865:3872   */\n      dup7\n        /* \"#utility.yul\":3856:3862   */\n      dup3\n        /* \"#utility.yul\":3845:3854   */\n      dup8\n        /* \"#utility.yul\":3841:3863   */\n      add\n        /* \"#utility.yul\":3810:3873   */\n      tag_50\n      jump\t// in\n    tag_124:\n        /* \"#utility.yul\":3800:3873   */\n      swap2\n      pop\n        /* \"#utility.yul\":3595:3883   */\n      pop\n        /* \"#utility.yul\":2911:3890   */\n      swap3\n      pop\n      swap3\n      pop\n      swap3\n      jump\t// out\n        /* \"#utility.yul\":3896:4225   */\n    tag_11:\n        /* \"#utility.yul\":3955:3961   */\n      0x00\n        /* \"#utility.yul\":4004:4006   */\n      0x20\n        /* \"#utility.yul\":3992:4001   */\n      dup3\n        /* \"#utility.yul\":3983:3990   */\n      dup5\n        /* \"#utility.yul\":3979:4002   */\n      sub\n        /* \"#utility.yul\":3975:4007   */\n      slt\n        /* \"#utility.yul\":3972:4091   */\n      iszero\n      tag_126\n      jumpi\n        /* \"#utility.yul\":4010:4089   */\n      tag_127\n      tag_36\n      jump\t// in\n    tag_127:\n        /* \"#utility.yul\":3972:4091   */\n    tag_126:\n        /* \"#utility.yul\":4130:4131   */\n      0x00\n        /* \"#utility.yul\":4155:4208   */\n      tag_128\n        /* \"#utility.yul\":4200:4207   */\n      dup5\n        /* \"#utility.yul\":4191:4197   */\n      dup3\n        /* \"#utility.yul\":4180:4189   */\n      dup6\n        /* \"#utility.yul\":4176:4198   */\n      add\n        /* \"#utility.yul\":4155:4208   */\n      tag_40\n      jump\t// in\n    tag_128:\n        /* \"#utility.yul\":4145:4208   */\n      swap2\n      pop\n        /* \"#utility.yul\":4101:4218   */\n      pop\n        /* \"#utility.yul\":3896:4225   */\n      swap3\n      swap2\n      pop\n      pop\n      jump\t// out\n        /* \"#utility.yul\":4231:4366   */\n    tag_51:\n        /* \"#utility.yul\":4319:4325   */\n      0x00\n        /* \"#utility.yul\":4353:4358   */\n      dup2\n        /* \"#utility.yul\":4347:4359   */\n      mload\n        /* \"#utility.yul\":4337:4359   */\n      swap1\n      pop\n        /* \"#utility.yul\":4231:4366   */\n      swap2\n      swap1\n      pop\n      jump\t// out\n        /* \"#utility.yul\":4372:4577   */\n    tag_52:\n        /* \"#utility.yul\":4492:4503   */\n      0x00\n        /* \"#utility.yul\":4526:4532   */\n      dup3\n        /* \"#utility.yul\":4521:4524   */\n      dup3\n        /* \"#utility.yul\":4514:4533   */\n      mstore\n        /* \"#utility.yul\":4566:4570   */\n      0x20\n        /* \"#utility.yul\":4561:4564   */\n      dup3\n        /* \"#utility.yul\":4557:4571   */\n      add\n        /* \"#utility.yul\":4542:4571   */\n      swap1\n      pop\n        /* \"#utility.yul\":4372:4577   */\n      swap3\n      swap2\n      pop\n      pop\n      jump\t// out\n        /* \"#utility.yul\":4583:4736   */\n    tag_53:\n        /* \"#utility.yul\":4671:4675   */\n      0x00\n        /* \"#utility.yul\":4694:4697   */\n      dup2\n        /* \"#utility.yul\":4686:4697   */\n      swap1\n      pop\n        /* \"#utility.yul\":4724:4728   */\n      0x20\n        /* \"#utility.yul\":4719:4722   */\n      dup3\n        /* \"#utility.yul\":4715:4729   */\n      add\n        /* \"#utility.yul\":4707:4729   */\n      swap1\n      pop\n        /* \"#utility.yul\":4583:4736   */\n      swap2\n      swap1\n      pop\n      jump\t// out\n        /* \"#utility.yul\":4742:4841   */\n    tag_54:\n        /* \"#utility.yul\":4794:4800   */\n      0x00\n        /* \"#utility.yul\":4828:4833   */\n      dup2\n        /* \"#utility.yul\":4822:4834   */\n      mload\n        /* \"#utility.yul\":4812:4834   */\n      swap1\n      pop\n        /* \"#utility.yul\":4742:4841   */\n      swap2\n      swap1\n      pop\n      jump\t// out\n        /* \"#utility.yul\":4847:5006   */\n    tag_55:\n        /* \"#utility.yul\":4921:4932   */\n      0x00\n        /* \"#utility.yul\":4955:4961   */\n      dup3\n        /* \"#utility.yul\":4950:4953   */\n      dup3\n        /* \"#utility.yul\":4943:4962   */\n      mstore\n        /* \"#utility.yul\":4995:4999   */\n      0x20\n        /* \"#utility.yul\":4990:4993   */\n      dup3\n        /* \"#utility.yul\":4986:5000   */\n      add\n        /* \"#utility.yul\":4971:5000   */\n      swap1\n      pop\n        /* \"#utility.yul\":4847:5006   */\n      swap3\n      swap2\n      pop\n      pop\n      jump\t// out\n        /* \"#utility.yul\":5012:5151   */\n    tag_56:\n        /* \"#utility.yul\":5101:5107   */\n      dup3\n        /* \"#utility.yul\":5096:5099   */\n      dup2\n        /* \"#utility.yul\":5091:5094   */\n      dup4\n        /* \"#utility.yul\":5085:5108   */\n      mcopy\n        /* \"#utility.yul\":5142:5143   */\n      0x00\n        /* \"#utility.yul\":5133:5139   */\n      dup4\n        /* \"#utility.yul\":5128:5131   */\n      dup4\n        /* \"#utility.yul\":5124:5140   */\n      add\n        /* \"#utility.yul\":5117:5144   */\n      mstore\n        /* \"#utility.yul\":5012:5151   */\n      pop\n      pop\n      pop\n      jump\t// out\n        /* \"#utility.yul\":5157:5514   */\n    tag_57:\n        /* \"#utility.yul\":5235:5238   */\n      0x00\n        /* \"#utility.yul\":5263:5302   */\n      tag_136\n        /* \"#utility.yul\":5296:5301   */\n      dup3\n        /* \"#utility.yul\":5263:5302   */\n      tag_54\n      jump\t// in\n    tag_136:\n        /* \"#utility.yul\":5318:5379   */\n      tag_137\n        /* \"#utility.yul\":5372:5378   */\n      dup2\n        /* \"#utility.yul\":5367:5370   */\n      dup6\n        /* \"#utility.yul\":5318:5379   */\n      tag_55\n      jump\t// in\n    tag_137:\n        /* \"#utility.yul\":5311:5379   */\n      swap4\n      pop\n        /* \"#utility.yul\":5388:5453   */\n      tag_138\n        /* \"#utility.yul\":5446:5452   */\n      dup2\n        /* \"#utility.yul\":5441:5444   */\n      dup6\n        /* \"#utility.yul\":5434:5438   */\n      0x20\n        /* \"#utility.yul\":5427:5432   */\n      dup7\n        /* \"#utility.yul\":5423:5439   */\n      add\n        /* \"#utility.yul\":5388:5453   */\n      tag_56\n      jump\t// in\n    tag_138:\n        /* \"#utility.yul\":5478:5507   */\n      tag_139\n        /* \"#utility.yul\":5500:5506   */\n      dup2\n        /* \"#utility.yul\":5478:5507   */\n      tag_43\n      jump\t// in\n    tag_139:\n        /* \"#utility.yul\":5473:5476   */\n      dup5\n        /* \"#utility.yul\":5469:5508   */\n      add\n        /* \"#utility.yul\":5462:5508   */\n      swap2\n      pop\n        /* \"#utility.yul\":5239:5514   */\n      pop\n        /* \"#utility.yul\":5157:5514   */\n      swap3\n      swap2\n      pop\n      pop\n      jump\t// out\n        /* \"#utility.yul\":5580:6254   */\n    tag_58:\n        /* \"#utility.yul\":5681:5684   */\n      0x00\n        /* \"#utility.yul\":5717:5721   */\n      0x40\n        /* \"#utility.yul\":5712:5715   */\n      dup4\n        /* \"#utility.yul\":5708:5722   */\n      add\n        /* \"#utility.yul\":5815:5819   */\n      0x00\n        /* \"#utility.yul\":5808:5813   */\n      dup4\n        /* \"#utility.yul\":5804:5820   */\n      add\n        /* \"#utility.yul\":5798:5821   */\n      mload\n        /* \"#utility.yul\":5868:5871   */\n      dup5\n        /* \"#utility.yul\":5862:5866   */\n      dup3\n        /* \"#utility.yul\":5858:5872   */\n      sub\n        /* \"#utility.yul\":5851:5855   */\n      0x00\n        /* \"#utility.yul\":5846:5849   */\n      dup7\n        /* \"#utility.yul\":5842:5856   */\n      add\n        /* \"#utility.yul\":5835:5873   */\n      mstore\n        /* \"#utility.yul\":5894:5967   */\n      tag_141\n        /* \"#utility.yul\":5962:5966   */\n      dup3\n        /* \"#utility.yul\":5948:5960   */\n      dup3\n        /* \"#utility.yul\":5894:5967   */\n      tag_57\n      jump\t// in\n    tag_141:\n        /* \"#utility.yul\":5886:5967   */\n      swap2\n      pop\n        /* \"#utility.yul\":5732:5978   */\n      pop\n        /* \"#utility.yul\":6064:6068   */\n      0x20\n        /* \"#utility.yul\":6057:6062   */\n      dup4\n        /* \"#utility.yul\":6053:6069   */\n      add\n        /* \"#utility.yul\":6047:6070   */\n      mload\n        /* \"#utility.yul\":6117:6120   */\n      dup5\n        /* \"#utility.yul\":6111:6115   */\n      dup3\n        /* \"#utility.yul\":6107:6121   */\n      sub\n        /* \"#utility.yul\":6100:6104   */\n      0x20\n        /* \"#utility.yul\":6095:6098   */\n      dup7\n        /* \"#utility.yul\":6091:6105   */\n      add\n        /* \"#utility.yul\":6084:6122   */\n      mstore\n        /* \"#utility.yul\":6143:6216   */\n      tag_142\n        /* \"#utility.yul\":6211:6215   */\n      dup3\n        /* \"#utility.yul\":6197:6209   */\n      dup3\n        /* \"#utility.yul\":6143:6216   */\n      tag_57\n      jump\t// in\n    tag_142:\n        /* \"#utility.yul\":6135:6216   */\n      swap2\n      pop\n        /* \"#utility.yul\":5988:6227   */\n      pop\n        /* \"#utility.yul\":6244:6248   */\n      dup1\n        /* \"#utility.yul\":6237:6248   */\n      swap2\n      pop\n        /* \"#utility.yul\":5686:6254   */\n      pop\n        /* \"#utility.yul\":5580:6254   */\n      swap3\n      swap2\n      pop\n      pop\n      jump\t// out\n        /* \"#utility.yul\":6260:6500   */\n    tag_59:\n        /* \"#utility.yul\":6371:6381   */\n      0x00\n        /* \"#utility.yul\":6406:6494   */\n      tag_144\n        /* \"#utility.yul\":6490:6493   */\n      dup4\n        /* \"#utility.yul\":6482:6488   */\n      dup4\n        /* \"#utility.yul\":6406:6494   */\n      tag_58\n      jump\t// in\n    tag_144:\n        /* \"#utility.yul\":6392:6494   */\n      swap1\n      pop\n        /* \"#utility.yul\":6260:6500   */\n      swap3\n      swap2\n      pop\n      pop\n      jump\t// out\n        /* \"#utility.yul\":6506:6640   */\n    tag_60:\n        /* \"#utility.yul\":6597:6601   */\n      0x00\n        /* \"#utility.yul\":6629:6633   */\n      0x20\n        /* \"#utility.yul\":6624:6627   */\n      dup3\n        /* \"#utility.yul\":6620:6634   */\n      add\n        /* \"#utility.yul\":6612:6634   */\n      swap1\n      pop\n        /* \"#utility.yul\":6506:6640   */\n      swap2\n      swap1\n      pop\n      jump\t// out\n        /* \"#utility.yul\":6710:7789   */\n    tag_61:\n        /* \"#utility.yul\":6871:6874   */\n      0x00\n        /* \"#utility.yul\":6900:6975   */\n      tag_147\n        /* \"#utility.yul\":6969:6974   */\n      dup3\n        /* \"#utility.yul\":6900:6975   */\n      tag_51\n      jump\t// in\n    tag_147:\n        /* \"#utility.yul\":6991:7098   */\n      tag_148\n        /* \"#utility.yul\":7091:7097   */\n      dup2\n        /* \"#utility.yul\":7086:7089   */\n      dup6\n        /* \"#utility.yul\":6991:7098   */\n      tag_52\n      jump\t// in\n    tag_148:\n        /* \"#utility.yul\":6984:7098   */\n      swap4\n      pop\n        /* \"#utility.yul\":7124:7127   */\n      dup4\n        /* \"#utility.yul\":7169:7173   */\n      0x20\n        /* \"#utility.yul\":7161:7167   */\n      dup3\n        /* \"#utility.yul\":7157:7174   */\n      mul\n        /* \"#utility.yul\":7152:7155   */\n      dup6\n        /* \"#utility.yul\":7148:7175   */\n      add\n        /* \"#utility.yul\":7199:7276   */\n      tag_149\n        /* \"#utility.yul\":7270:7275   */\n      dup6\n        /* \"#utility.yul\":7199:7276   */\n      tag_53\n      jump\t// in\n    tag_149:\n        /* \"#utility.yul\":7299:7306   */\n      dup1\n        /* \"#utility.yul\":7330:7331   */\n      0x00\n        /* \"#utility.yul\":7315:7744   */\n    tag_150:\n        /* \"#utility.yul\":7340:7346   */\n      dup6\n        /* \"#utility.yul\":7337:7338   */\n      dup2\n        /* \"#utility.yul\":7334:7347   */\n      lt\n        /* \"#utility.yul\":7315:7744   */\n      iszero\n      tag_152\n      jumpi\n        /* \"#utility.yul\":7411:7420   */\n      dup5\n        /* \"#utility.yul\":7405:7409   */\n      dup5\n        /* \"#utility.yul\":7401:7421   */\n      sub\n        /* \"#utility.yul\":7396:7399   */\n      dup10\n        /* \"#utility.yul\":7389:7422   */\n      mstore\n        /* \"#utility.yul\":7462:7468   */\n      dup2\n        /* \"#utility.yul\":7456:7469   */\n      mload\n        /* \"#utility.yul\":7490:7596   */\n      tag_153\n        /* \"#utility.yul\":7591:7595   */\n      dup6\n        /* \"#utility.yul\":7576:7589   */\n      dup3\n        /* \"#utility.yul\":7490:7596   */\n      tag_59\n      jump\t// in\n    tag_153:\n        /* \"#utility.yul\":7482:7596   */\n      swap5\n      pop\n        /* \"#utility.yul\":7619:7700   */\n      tag_154\n        /* \"#utility.yul\":7693:7699   */\n      dup4\n        /* \"#utility.yul\":7619:7700   */\n      tag_60\n      jump\t// in\n    tag_154:\n        /* \"#utility.yul\":7609:7700   */\n      swap3\n      pop\n        /* \"#utility.yul\":7729:7733   */\n      0x20\n        /* \"#utility.yul\":7724:7727   */\n      dup11\n        /* \"#utility.yul\":7720:7734   */\n      add\n        /* \"#utility.yul\":7713:7734   */\n      swap10\n      pop\n        /* \"#utility.yul\":7375:7744   */\n      pop\n        /* \"#utility.yul\":7362:7363   */\n      0x01\n        /* \"#utility.yul\":7359:7360   */\n      dup2\n        /* \"#utility.yul\":7355:7364   */\n      add\n        /* \"#utility.yul\":7350:7364   */\n      swap1\n      pop\n        /* \"#utility.yul\":7315:7744   */\n      jump(tag_150)\n    tag_152:\n        /* \"#utility.yul\":7319:7333   */\n      pop\n        /* \"#utility.yul\":7760:7764   */\n      dup3\n        /* \"#utility.yul\":7753:7764   */\n      swap8\n      pop\n        /* \"#utility.yul\":7780:7783   */\n      dup8\n        /* \"#utility.yul\":7773:7783   */\n      swap6\n      pop\n        /* \"#utility.yul\":6876:7789   */\n      pop\n      pop\n      pop\n      pop\n      pop\n        /* \"#utility.yul\":6710:7789   */\n      swap3\n      swap2\n      pop\n      pop\n      jump\t// out\n        /* \"#utility.yul\":7795:8252   */\n    tag_14:\n        /* \"#utility.yul\":7980:7984   */\n      0x00\n        /* \"#utility.yul\":8018:8020   */\n      0x20\n        /* \"#utility.yul\":8007:8016   */\n      dup3\n        /* \"#utility.yul\":8003:8021   */\n      add\n        /* \"#utility.yul\":7995:8021   */\n      swap1\n      pop\n        /* \"#utility.yul\":8067:8076   */\n      dup2\n        /* \"#utility.yul\":8061:8065   */\n      dup2\n        /* \"#utility.yul\":8057:8077   */\n      sub\n        /* \"#utility.yul\":8053:8054   */\n      0x00\n        /* \"#utility.yul\":8042:8051   */\n      dup4\n        /* \"#utility.yul\":8038:8055   */\n      add\n        /* \"#utility.yul\":8031:8078   */\n      mstore\n        /* \"#utility.yul\":8095:8245   */\n      tag_156\n        /* \"#utility.yul\":8240:8244   */\n      dup2\n        /* \"#utility.yul\":8231:8237   */\n      dup5\n        /* \"#utility.yul\":8095:8245   */\n      tag_61\n      jump\t// in\n    tag_156:\n        /* \"#utility.yul\":8087:8245   */\n      swap1\n      pop\n        /* \"#utility.yul\":7795:8252   */\n      swap3\n      swap2\n      pop\n      pop\n      jump\t// out\n        /* \"#utility.yul\":8258:8438   */\n    tag_62:\n        /* \"#utility.yul\":8306:8383   */\n      0x4e487b7100000000000000000000000000000000000000000000000000000000\n        /* \"#utility.yul\":8303:8304   */\n      0x00\n        /* \"#utility.yul\":8296:8384   */\n      mstore\n        /* \"#utility.yul\":8403:8407   */\n      0x22\n        /* \"#utility.yul\":8400:8401   */\n      0x04\n        /* \"#utility.yul\":8393:8408   */\n      mstore\n        /* \"#utility.yul\":8427:8431   */\n      0x24\n        /* \"#utility.yul\":8424:8425   */\n      0x00\n        /* \"#utility.yul\":8417:8432   */\n      revert\n        /* \"#utility.yul\":8444:8764   */\n    tag_25:\n        /* \"#utility.yul\":8488:8494   */\n      0x00\n        /* \"#utility.yul\":8525:8526   */\n      0x02\n        /* \"#utility.yul\":8519:8523   */\n      dup3\n        /* \"#utility.yul\":8515:8527   */\n      div\n        /* \"#utility.yul\":8505:8527   */\n      swap1\n      pop\n        /* \"#utility.yul\":8572:8573   */\n      0x01\n        /* \"#utility.yul\":8566:8570   */\n      dup3\n        /* \"#utility.yul\":8562:8574   */\n      and\n        /* \"#utility.yul\":8593:8611   */\n      dup1\n        /* \"#utility.yul\":8583:8664   */\n      tag_159\n      jumpi\n        /* \"#utility.yul\":8649:8653   */\n      0x7f\n        /* \"#utility.yul\":8641:8647   */\n      dup3\n        /* \"#utility.yul\":8637:8654   */\n      and\n        /* \"#utility.yul\":8627:8654   */\n      swap2\n      pop\n        /* \"#utility.yul\":8583:8664   */\n    tag_159:\n        /* \"#utility.yul\":8711:8713   */\n      0x20\n        /* \"#utility.yul\":8703:8709   */\n      dup3\n        /* \"#utility.yul\":8700:8714   */\n      lt\n        /* \"#utility.yul\":8680:8698   */\n      dup2\n        /* \"#utility.yul\":8677:8715   */\n      sub\n        /* \"#utility.yul\":8674:8758   */\n      tag_160\n      jumpi\n        /* \"#utility.yul\":8730:8748   */\n      tag_161\n      tag_62\n      jump\t// in\n    tag_161:\n        /* \"#utility.yul\":8674:8758   */\n    tag_160:\n        /* \"#utility.yul\":8495:8764   */\n      pop\n        /* \"#utility.yul\":8444:8764   */\n      swap2\n      swap1\n      pop\n      jump\t// out\n        /* \"#utility.yul\":8770:8911   */\n    tag_63:\n        /* \"#utility.yul\":8819:8823   */\n      0x00\n        /* \"#utility.yul\":8842:8845   */\n      dup2\n        /* \"#utility.yul\":8834:8845   */\n      swap1\n      pop\n        /* \"#utility.yul\":8865:8868   */\n      dup2\n        /* \"#utility.yul\":8862:8863   */\n      0x00\n        /* \"#utility.yul\":8855:8869   */\n      mstore\n        /* \"#utility.yul\":8899:8903   */\n      0x20\n        /* \"#utility.yul\":8896:8897   */\n      0x00\n        /* \"#utility.yul\":8886:8904   */\n      keccak256\n        /* \"#utility.yul\":8878:8904   */\n      swap1\n      pop\n        /* \"#utility.yul\":8770:8911   */\n      swap2\n      swap1\n      pop\n      jump\t// out\n        /* \"#utility.yul\":8917:9010   */\n    tag_64:\n        /* \"#utility.yul\":8954:8960   */\n      0x00\n        /* \"#utility.yul\":9001:9003   */\n      0x20\n        /* \"#utility.yul\":8996:8998   */\n      0x1f\n        /* \"#utility.yul\":8989:8994   */\n      dup4\n        /* \"#utility.yul\":8985:8999   */\n      add\n        /* \"#utility.yul\":8981:9004   */\n      div\n        /* \"#utility.yul\":8971:9004   */\n      swap1\n      pop\n        /* \"#utility.yul\":8917:9010   */\n      swap2\n      swap1\n      pop\n      jump\t// out\n        /* \"#utility.yul\":9016:9123   */\n    tag_65:\n        /* \"#utility.yul\":9060:9068   */\n      0x00\n        /* \"#utility.yul\":9110:9115   */\n      dup3\n        /* \"#utility.yul\":9104:9108   */\n      dup3\n        /* \"#utility.yul\":9100:9116   */\n      shl\n        /* \"#utility.yul\":9079:9116   */\n      swap1\n      pop\n        /* \"#utility.yul\":9016:9123   */\n      swap3\n      swap2\n      pop\n      pop\n      jump\t// out\n        /* \"#utility.yul\":9129:9522   */\n    tag_66:\n        /* \"#utility.yul\":9198:9204   */\n      0x00\n        /* \"#utility.yul\":9248:9249   */\n      0x08\n        /* \"#utility.yul\":9236:9246   */\n      dup4\n        /* \"#utility.yul\":9232:9250   */\n      mul\n        /* \"#utility.yul\":9271:9368   */\n      tag_166\n        /* \"#utility.yul\":9301:9367   */\n      0xffffffffffffffffffffffffffffffffffffffffffffffffffffffffffffffff\n        /* \"#utility.yul\":9290:9299   */\n      dup3\n        /* \"#utility.yul\":9271:9368   */\n      tag_65\n      jump\t// in\n    tag_166:\n        /* \"#utility.yul\":9389:9428   */\n      tag_167\n        /* \"#utility.yul\":9419:9427   */\n      dup7\n        /* \"#utility.yul\":9408:9417   */\n      dup4\n        /* \"#utility.yul\":9389:9428   */\n      tag_65\n      jump\t// in\n    tag_167:\n        /* \"#utility.yul\":9377:9428   */\n      swap6\n      pop\n        /* \"#utility.yul\":9461:9465   */\n      dup1\n        /* \"#utility.yul\":9457:9466   */\n      not\n        /* \"#utility.yul\":9450:9455   */\n      dup5\n        /* \"#utility.yul\":9446:9467   */\n      and\n        /* \"#utility.yul\":9437:9467   */\n      swap4\n      pop\n        /* \"#utility.yul\":9510:9514   */\n      dup1\n        /* \"#utility.yul\":9500:9508   */\n      dup7\n        /* \"#utility.yul\":9496:9515   */\n      and\n        /* \"#utility.yul\":9489:9494   */\n      dup5\n        /* \"#utility.yul\":9486:9516   */\n      or\n        /* \"#utility.yul\":9476:9516   */\n      swap3\n      pop\n        /* \"#utility.yul\":9205:9522   */\n      pop\n      pop\n        /* \"#utility.yul\":9129:9522   */\n      swap4\n      swap3\n      pop\n      pop\n      pop\n      jump\t// out\n        /* \"#utility.yul\":9528:9605   */\n    tag_67:\n        /* \"#utility.yul\":9565:9572   */\n      0x00\n        /* \"#utility.yul\":9594:9599   */\n      dup2\n        /* \"#utility.yul\":9583:9599   */\n      swap1\n      pop\n        /* \"#utility.yul\":9528:9605   */\n      swap2\n      swap1\n      pop\n      jump\t// out\n        /* \"#utility.yul\":9611:9671   */\n    tag_68:\n        /* \"#utility.yul\":9639:9642   */\n      0x00\n        /* \"#utility.yul\":9660:9665   */\n      dup2\n        /* \"#utility.yul\":9653:9665   */\n      swap1\n      pop\n        /* \"#utility.yul\":9611:9671   */\n      swap2\n      swap1\n      pop\n      jump\t// out\n        /* \"#utility.yul\":9677:9819   */\n    tag_69:\n        /* \"#utility.yul\":9727:9736   */\n      0x00\n        /* \"#utility.yul\":9760:9813   */\n      tag_171\n        /* \"#utility.yul\":9778:9812   */\n      tag_172\n        /* \"#utility.yul\":9787:9811   */\n      tag_173\n        /* \"#utility.yul\":9805:9810   */\n      dup5\n        /* \"#utility.yul\":9787:9811   */\n      tag_67\n      jump\t// in\n    tag_173:\n        /* \"#utility.yul\":9778:9812   */\n      tag_68\n      jump\t// in\n    tag_172:\n        /* \"#utility.yul\":9760:9813   */\n      tag_67\n      jump\t// in\n    tag_171:\n        /* \"#utility.yul\":9747:9813   */\n      swap1\n      pop\n        /* \"#utility.yul\":9677:9819   */\n      swap2\n      swap1\n      pop\n      jump\t// out\n        /* \"#utility.yul\":9825:9900   */\n    tag_70:\n        /* \"#utility.yul\":9868:9871   */\n      0x00\n        /* \"#utility.yul\":9889:9894   */\n      dup2\n        /* \"#utility.yul\":9882:9894   */\n      swap1\n      pop\n        /* \"#utility.yul\":9825:9900   */\n      swap2\n      swap1\n      pop\n      jump\t// out\n        /* \"#utility.yul\":9906:10175   */\n    tag_71:\n        /* \"#utility.yul\":10016:10055   */\n      tag_176\n        /* \"#utility.yul\":10047:10054   */\n      dup4\n        /* \"#utility.yul\":10016:10055   */\n      tag_69\n      jump\t// in\n    tag_176:\n        /* \"#utility.yul\":10077:10168   */\n      tag_177\n        /* \"#utility.yul\":10126:10167   */\n      tag_178\n        /* \"#utility.yul\":10150:10166   */\n      dup3\n        /* \"#utility.yul\":10126:10167   */\n      tag_70\n      jump\t// in\n    tag_178:\n        /* \"#utility.yul\":10118:10124   */\n      dup5\n        /* \"#utility.yul\":10111:10115   */\n      dup5\n        /* \"#utility.yul\":10105:10116   */\n      sload\n        /* \"#utility.yul\":10077:10168   */\n      tag_66\n      jump\t// in\n    tag_177:\n        /* \"#utility.yul\":10071:10075   */\n      dup3\n        /* \"#utility.yul\":10064:10169   */\n      sstore\n        /* \"#utility.yul\":9982:10175   */\n      pop\n        /* \"#utility.yul\":9906:10175   */\n      pop\n      pop\n      pop\n      jump\t// out\n        /* \"#utility.yul\":10181:10254   */\n    tag_72:\n        /* \"#utility.yul\":10226:10229   */\n      0x00\n        /* \"#utility.yul\":10247:10248   */\n      0x00\n        /* \"#utility.yul\":10240:10248   */\n      swap1\n      pop\n        /* \"#utility.yul\":10181:10254   */\n      swap1\n      jump\t// out\n        /* \"#utility.yul\":10260:10449   */\n    tag_73:\n        /* \"#utility.yul\":10337:10369   */\n      tag_181\n      tag_72\n      jump\t// in\n    tag_181:\n        /* \"#utility.yul\":10378:10443   */\n      tag_182\n        /* \"#utility.yul\":10436:10442   */\n      dup2\n        /* \"#utility.yul\":10428:10434   */\n      dup5\n        /* \"#utility.yul\":10422:10426   */\n      dup5\n        /* \"#utility.yul\":10378:10443   */\n      tag_71\n      jump\t// in\n    tag_182:\n        /* \"#utility.yul\":10313:10449   */\n      pop\n        /* \"#utility.yul\":10260:10449   */\n      pop\n      pop\n      jump\t// out\n        /* \"#utility.yul\":10455:10641   */\n    tag_74:\n        /* \"#utility.yul\":10515:10635   */\n    tag_184:\n        /* \"#utility.yul\":10532:10535   */\n      dup2\n        /* \"#utility.yul\":10525:10530   */\n      dup2\n        /* \"#utility.yul\":10522:10536   */\n      lt\n        /* \"#utility.yul\":10515:10635   */\n      iszero\n      tag_186\n      jumpi\n        /* \"#utility.yul\":10586:10625   */\n      tag_187\n        /* \"#utility.yul\":10623:10624   */\n      0x00\n        /* \"#utility.yul\":10616:10621   */\n      dup3\n        /* \"#utility.yul\":10586:10625   */\n      tag_73\n      jump\t// in\n    tag_187:\n        /* \"#utility.yul\":10559:10560   */\n      0x01\n        /* \"#utility.yul\":10552:10557   */\n      dup2\n        /* \"#utility.yul\":10548:10561   */\n      add\n        /* \"#utility.yul\":10539:10561   */\n      swap1\n      pop\n        /* \"#utility.yul\":10515:10635   */\n      jump(tag_184)\n    tag_186:\n        /* \"#utility.yul\":10455:10641   */\n      pop\n      pop\n      jump\t// out\n        /* \"#utility.yul\":10647:11190   */\n    tag_75:\n        /* \"#utility.yul\":10748:10750   */\n      0x1f\n        /* \"#utility.yul\":10743:10746   */\n      dup3\n        /* \"#utility.yul\":10740:10751   */\n      gt\n        /* \"#utility.yul\":10737:11183   */\n      iszero\n      tag_189\n      jumpi\n        /* \"#utility.yul\":10782:10820   */\n      tag_190\n        /* \"#utility.yul\":10814:10819   */\n      dup2\n        /* \"#utility.yul\":10782:10820   */\n      tag_63\n      jump\t// in\n    tag_190:\n        /* \"#utility.yul\":10866:10895   */\n      tag_191\n        /* \"#utility.yul\":10884:10894   */\n      dup5\n        /* \"#utility.yul\":10866:10895   */\n      tag_64\n      jump\t// in\n    tag_191:\n        /* \"#utility.yul\":10856:10864   */\n      dup2\n        /* \"#utility.yul\":10852:10896   */\n      add\n        /* \"#utility.yul\":11049:11051   */\n      0x20\n        /* \"#utility.yul\":11037:11047   */\n      dup6\n        /* \"#utility.yul\":11034:11052   */\n      lt\n        /* \"#utility.yul\":11031:11080   */\n      iszero\n      tag_192\n      jumpi\n        /* \"#utility.yul\":11070:11078   */\n      dup2\n        /* \"#utility.yul\":11055:11078   */\n      swap1\n      pop\n        /* \"#utility.yul\":11031:11080   */\n    tag_192:\n        /* \"#utility.yul\":11093:11173   */\n      tag_193\n        /* \"#utility.yul\":11149:11171   */\n      tag_194\n        /* \"#utility.yul\":11167:11170   */\n      dup6\n        /* \"#utility.yul\":11149:11171   */\n      tag_64\n      jump\t// in\n    tag_194:\n        /* \"#utility.yul\":11139:11147   */\n      dup4\n        /* \"#utility.yul\":11135:11172   */\n      add\n        /* \"#utility.yul\":11122:11133   */\n      dup3\n        /* \"#utility.yul\":11093:11173   */\n      tag_74\n      jump\t// in\n    tag_193:\n        /* \"#utility.yul\":10752:11183   */\n      pop\n      pop\n        /* \"#utility.yul\":10737:11183   */\n    tag_189:\n        /* \"#utility.yul\":10647:11190   */\n      pop\n      pop\n      pop\n      jump\t// out\n        /* \"#utility.yul\":11196:11313   */\n    tag_76:\n        /* \"#utility.yul\":11250:11258   */\n      0x00\n        /* \"#utility.yul\":11300:11305   */\n      dup3\n        /* \"#utility.yul\":11294:11298   */\n      dup3\n        /* \"#utility.yul\":11290:11306   */\n      shr\n        /* \"#utility.yul\":11269:11306   */\n      swap1\n      pop\n        /* \"#utility.yul\":11196:11313   */\n      swap3\n      swap2\n      pop\n      pop\n      jump\t// out\n        /* \"#utility.yul\":11319:11488   */\n    tag_77:\n        /* \"#utility.yul\":11363:11369   */\n      0x00\n        /* \"#utility.yul\":11396:11447   */\n      tag_197\n        /* \"#utility.yul\":11444:11445   */\n      0x00\n        /* \"#utility.yul\":11440:11446   */\n      not\n        /* \"#utility.yul\":11432:11437   */\n      dup5\n        /* \"#utility.yul\":11429:11430   */\n      0x08\n        /* \"#utility.yul\":11425:11438   */\n      mul\n        /* \"#utility.yul\":11396:11447   */\n      tag_76\n      jump\t// in\n    tag_197:\n        /* \"#utility.yul\":11392:11448   */\n      not\n        /* \"#utility.yul\":11477:11481   */\n      dup1\n        /* \"#utility.yul\":11471:11475   */\n      dup4\n        /* \"#utility.yul\":11467:11482   */\n      and\n        /* \"#utility.yul\":11457:11482   */\n      swap2\n      pop\n        /* \"#utility.yul\":11370:11488   */\n      pop\n        /* \"#utility.yul\":11319:11488   */\n      swap3\n      swap2\n      pop\n      pop\n      jump\t// out\n        /* \"#utility.yul\":11493:11788   */\n    tag_78:\n        /* \"#utility.yul\":11569:11573   */\n      0x00\n        /* \"#utility.yul\":11715:11744   */\n      tag_199\n        /* \"#utility.yul\":11740:11743   */\n      dup4\n        /* \"#utility.yul\":11734:11738   */\n      dup4\n        /* \"#utility.yul\":11715:11744   */\n      tag_77\n      jump\t// in\n    tag_199:\n        /* \"#utility.yul\":11707:11744   */\n      swap2\n      pop\n        /* \"#utility.yul\":11777:11780   */\n      dup3\n        /* \"#utility.yul\":11774:11775   */\n      0x02\n        /* \"#utility.yul\":11770:11781   */\n      mul\n        /* \"#utility.yul\":11764:11768   */\n      dup3\n        /* \"#utility.yul\":11761:11782   */\n      or\n        /* \"#utility.yul\":11753:11782   */\n      swap1\n      pop\n        /* \"#utility.yul\":11493:11788   */\n      swap3\n      swap2\n      pop\n      pop\n      jump\t// out\n        /* \"#utility.yul\":11793:13188   */\n    tag_18:\n        /* \"#utility.yul\":11910:11947   */\n      tag_201\n        /* \"#utility.yul\":11943:11946   */\n      dup3\n        /* \"#utility.yul\":11910:11947   */\n      tag_54\n      jump\t// in\n    tag_201:\n        /* \"#utility.yul\":12012:12030   */\n      0xffffffffffffffff\n        /* \"#utility.yul\":12004:12010   */\n      dup2\n        /* \"#utility.yul\":12001:12031   */\n      gt\n        /* \"#utility.yul\":11998:12054   */\n      iszero\n      tag_202\n      jumpi\n        /* \"#utility.yul\":12034:12052   */\n      tag_203\n      tag_44\n      jump\t// in\n    tag_203:\n        /* \"#utility.yul\":11998:12054   */\n    tag_202:\n        /* \"#utility.yul\":12078:12116   */\n      tag_204\n        /* \"#utility.yul\":12110:12114   */\n      dup3\n        /* \"#utility.yul\":12104:12115   */\n      sload\n        /* \"#utility.yul\":12078:12116   */\n      tag_25\n      jump\t// in\n    tag_204:\n        /* \"#utility.yul\":12163:12230   */\n      tag_205\n        /* \"#utility.yul\":12223:12229   */\n      dup3\n        /* \"#utility.yul\":12215:12221   */\n      dup3\n        /* \"#utility.yul\":12209:12213   */\n      dup6\n        /* \"#utility.yul\":12163:12230   */\n      tag_75\n      jump\t// in\n    tag_205:\n        /* \"#utility.yul\":12257:12258   */\n      0x00\n        /* \"#utility.yul\":12281:12285   */\n      0x20\n        /* \"#utility.yul\":12268:12285   */\n      swap1\n      pop\n        /* \"#utility.yul\":12313:12315   */\n      0x1f\n        /* \"#utility.yul\":12305:12311   */\n      dup4\n        /* \"#utility.yul\":12302:12316   */\n      gt\n        /* \"#utility.yul\":12330:12331   */\n      0x01\n        /* \"#utility.yul\":12325:12943   */\n      dup2\n      eq\n      tag_207\n      jumpi\n        /* \"#utility.yul\":12987:12988   */\n      0x00\n        /* \"#utility.yul\":13004:13010   */\n      dup5\n        /* \"#utility.yul\":13001:13078   */\n      iszero\n      tag_208\n      jumpi\n        /* \"#utility.yul\":13053:13062   */\n      dup3\n        /* \"#utility.yul\":13048:13051   */\n      dup8\n        /* \"#utility.yul\":13044:13063   */\n      add\n        /* \"#utility.yul\":13038:13064   */\n      mload\n        /* \"#utility.yul\":13029:13064   */\n      swap1\n      pop\n        /* \"#utility.yul\":13001:13078   */\n    tag_208:\n        /* \"#utility.yul\":13104:13171   */\n      tag_209\n        /* \"#utility.yul\":13164:13170   */\n      dup6\n        /* \"#utility.yul\":13157:13162   */\n      dup3\n        /* \"#utility.yul\":13104:13171   */\n      tag_78\n      jump\t// in\n    tag_209:\n        /* \"#utility.yul\":13098:13102   */\n      dup7\n        /* \"#utility.yul\":13091:13172   */\n      sstore\n        /* \"#utility.yul\":12960:13182   */\n      pop\n        /* \"#utility.yul\":12295:13182   */\n      jump(tag_206)\n        /* \"#utility.yul\":12325:12943   */\n    tag_207:\n        /* \"#utility.yul\":12377:12381   */\n      0x1f\n        /* \"#utility.yul\":12373:12382   */\n      not\n        /* \"#utility.yul\":12365:12371   */\n      dup5\n        /* \"#utility.yul\":12361:12383   */\n      and\n        /* \"#utility.yul\":12411:12448   */\n      tag_210\n        /* \"#utility.yul\":12443:12447   */\n      dup7\n        /* \"#utility.yul\":12411:12448   */\n      tag_63\n      jump\t// in\n    tag_210:\n        /* \"#utility.yul\":12470:12471   */\n      0x00\n        /* \"#utility.yul\":12484:12692   */\n    tag_211:\n        /* \"#utility.yul\":12498:12505   */\n      dup3\n        /* \"#utility.yul\":12495:12496   */\n      dup2\n        /* \"#utility.yul\":12492:12506   */\n      lt\n        /* \"#utility.yul\":12484:12692   */\n      iszero\n      tag_213\n      jumpi\n        /* \"#utility.yul\":12577:12586   */\n      dup5\n        /* \"#utility.yul\":12572:12575   */\n      dup10\n        /* \"#utility.yul\":12568:12587   */\n      add\n        /* \"#utility.yul\":12562:12588   */\n      mload\n        /* \"#utility.yul\":12554:12560   */\n      dup3\n        /* \"#utility.yul\":12547:12589   */\n      sstore\n        /* \"#utility.yul\":12628:12629   */\n      0x01\n        /* \"#utility.yul\":12620:12626   */\n      dup3\n        /* \"#utility.yul\":12616:12630   */\n      add\n        /* \"#utility.yul\":12606:12630   */\n      swap2\n      pop\n        /* \"#utility.yul\":12675:12677   */\n      0x20\n        /* \"#utility.yul\":12664:12673   */\n      dup6\n        /* \"#utility.yul\":12660:12678   */\n      add\n        /* \"#utility.yul\":12647:12678   */\n      swap5\n      pop\n        /* \"#utility.yul\":12521:12525   */\n      0x20\n        /* \"#utility.yul\":12518:12519   */\n      dup2\n        /* \"#utility.yul\":12514:12526   */\n      add\n        /* \"#utility.yul\":12509:12526   */\n      swap1\n      pop\n        /* \"#utility.yul\":12484:12692   */\n      jump(tag_211)\n    tag_213:\n        /* \"#utility.yul\":12720:12726   */\n      dup7\n        /* \"#utility.yul\":12711:12718   */\n      dup4\n        /* \"#utility.yul\":12708:12727   */\n      lt\n        /* \"#utility.yul\":12705:12884   */\n      iszero\n      tag_214\n      jumpi\n        /* \"#utility.yul\":12778:12787   */\n      dup5\n        /* \"#utility.yul\":12773:12776   */\n      dup10\n        /* \"#utility.yul\":12769:12788   */\n      add\n        /* \"#utility.yul\":12763:12789   */\n      mload\n        /* \"#utility.yul\":12821:12869   */\n      tag_215\n        /* \"#utility.yul\":12863:12867   */\n      0x1f\n        /* \"#utility.yul\":12855:12861   */\n      dup10\n        /* \"#utility.yul\":12851:12868   */\n      and\n        /* \"#utility.yul\":12840:12849   */\n      dup3\n        /* \"#utility.yul\":12821:12869   */\n      tag_77\n      jump\t// in\n    tag_215:\n        /* \"#utility.yul\":12813:12819   */\n      dup4\n        /* \"#utility.yul\":12806:12870   */\n      sstore\n        /* \"#utility.yul\":12728:12884   */\n      pop\n        /* \"#utility.yul\":12705:12884   */\n    tag_214:\n        /* \"#utility.yul\":12930:12931   */\n      0x01\n        /* \"#utility.yul\":12926:12927   */\n      0x02\n        /* \"#utility.yul\":12918:12924   */\n      dup9\n        /* \"#utility.yul\":12914:12928   */\n      mul\n        /* \"#utility.yul\":12910:12932   */\n      add\n        /* \"#utility.yul\":12904:12908   */\n      dup9\n        /* \"#utility.yul\":12897:12933   */\n      sstore\n        /* \"#utility.yul\":12332:12943   */\n      pop\n      pop\n      pop\n        /* \"#utility.yul\":12295:13182   */\n    tag_206:\n      pop\n        /* \"#utility.yul\":11885:13188   */\n      pop\n      pop\n      pop\n        /* \"#utility.yul\":11793:13188   */\n      pop\n      pop\n      jump\t// out\n\n    auxdata: 0xa26469706673582212209d915c39372bf83b548284646196b31957e43a34346338a8750c2f39aeea9e0164736f6c634300081e0033\n}\n",
				"bytecode": {
					"linkReferences": {},
					"object": "6080604052348015600e575f5ffd5b506109458061001c5f395ff3fe608060405234801561000f575f5ffd5b5060043610610034575f3560e01c8063696b3141146100385780636d43c4c914610054575b5f5ffd5b610052600480360381019061004d919061040b565b610084565b005b61006e60048036038101906100699190610493565b610100565b60405161007b919061061a565b60405180910390f35b5f5f8481526020019081526020015f20604051806040016040528084815260200183815250908060018154018082558091505060019003905f5260205f2090600202015f909190919091505f820151815f0190816100e29190610840565b5060208201518160010190816100f89190610840565b505050505050565b60605f5f8381526020019081526020015f20805480602002602001604051908101604052809291908181526020015f905b82821015610280578382905f5260205f2090600202016040518060400160405290815f8201805461016190610667565b80601f016020809104026020016040519081016040528092919081815260200182805461018d90610667565b80156101d85780601f106101af576101008083540402835291602001916101d8565b820191905f5260205f20905b8154815290600101906020018083116101bb57829003601f168201915b505050505081526020016001820180546101f190610667565b80601f016020809104026020016040519081016040528092919081815260200182805461021d90610667565b80156102685780601f1061023f57610100808354040283529160200191610268565b820191905f5260205f20905b81548152906001019060200180831161024b57829003601f168201915b50505050508152505081526020019060010190610131565b505050509050919050565b5f604051905090565b5f5ffd5b5f5ffd5b5f819050919050565b6102ae8161029c565b81146102b8575f5ffd5b50565b5f813590506102c9816102a5565b92915050565b5f5ffd5b5f5ffd5b5f601f19601f8301169050919050565b7f4e487b71000000000000000000000000000000000000000000000000000000005f52604160045260245ffd5b61031d826102d7565b810181811067ffffffffffffffff8211171561033c5761033b6102e7565b5b80604052505050565b5f61034e61028b565b905061035a8282610314565b919050565b5f67ffffffffffffffff821115610379576103786102e7565b5b610382826102d7565b9050602081019050919050565b828183375f83830152505050565b5f6103af6103aa8461035f565b610345565b9050828152602081018484840111156103cb576103ca6102d3565b5b6103d684828561038f565b509392505050565b5f82601f8301126103f2576103f16102cf565b5b813561040284826020860161039d565b91505092915050565b5f5f5f6060848603121561042257610421610294565b5b5f61042f868287016102bb565b935050602084013567ffffffffffffffff8111156104505761044f610298565b5b61045c868287016103de565b925050604084013567ffffffffffffffff81111561047d5761047c610298565b5b610489868287016103de565b9150509250925092565b5f602082840312156104a8576104a7610294565b5b5f6104b5848285016102bb565b91505092915050565b5f81519050919050565b5f82825260208201905092915050565b5f819050602082019050919050565b5f81519050919050565b5f82825260208201905092915050565b8281835e5f83830152505050565b5f610519826104e7565b61052381856104f1565b9350610533818560208601610501565b61053c816102d7565b840191505092915050565b5f604083015f8301518482035f860152610561828261050f565b9150506020830151848203602086015261057b828261050f565b9150508091505092915050565b5f6105938383610547565b905092915050565b5f602082019050919050565b5f6105b1826104be565b6105bb81856104c8565b9350836020820285016105cd856104d8565b805f5b8581101561060857848403895281516105e98582610588565b94506105f48361059b565b925060208a019950506001810190506105d0565b50829750879550505050505092915050565b5f6020820190508181035f83015261063281846105a7565b905092915050565b7f4e487b71000000000000000000000000000000000000000000000000000000005f52602260045260245ffd5b5f600282049050600182168061067e57607f821691505b6020821081036106915761069061063a565b5b50919050565b5f819050815f5260205f209050919050565b5f6020601f8301049050919050565b5f82821b905092915050565b5f600883026106f37fffffffffffffffffffffffffffffffffffffffffffffffffffffffffffffffff826106b8565b6106fd86836106b8565b95508019841693508086168417925050509392505050565b5f819050919050565b5f819050919050565b5f61074161073c61073784610715565b61071e565b610715565b9050919050565b5f819050919050565b61075a83610727565b61076e61076682610748565b8484546106c4565b825550505050565b5f5f905090565b610785610776565b610790818484610751565b505050565b5b818110156107b3576107a85f8261077d565b600181019050610796565b5050565b601f8211156107f8576107c981610697565b6107d2846106a9565b810160208510156107e1578190505b6107f56107ed856106a9565b830182610795565b50505b505050565b5f82821c905092915050565b5f6108185f19846008026107fd565b1980831691505092915050565b5f6108308383610809565b9150826002028217905092915050565b610849826104e7565b67ffffffffffffffff811115610862576108616102e7565b5b61086c8254610667565b6108778282856107b7565b5f60209050601f8311600181146108a8575f8415610896578287015190505b6108a08582610825565b865550610907565b601f1984166108b686610697565b5f5b828110156108dd578489015182556001820191506020850194506020810190506108b8565b868310156108fa57848901516108f6601f891682610809565b8355505b6001600288020188555050505b50505050505056fea26469706673582212209d915c39372bf83b548284646196b31957e43a34346338a8750c2f39aeea9e0164736f6c634300081e0033",
					"opcodes": "PUSH1 0x80 PUSH1 0x40 MSTORE CALLVALUE DUP1 ISZERO PUSH1 0xE JUMPI PUSH0 PUSH0 REVERT JUMPDEST POP PUSH2 0x945 DUP1 PUSH2 0x1C PUSH0 CODECOPY PUSH0 RETURN INVALID PUSH1 0x80 PUSH1 0x40 MSTORE CALLVALUE DUP1 ISZERO PUSH2 0xF JUMPI PUSH0 PUSH0 REVERT JUMPDEST POP PUSH1 0x4 CALLDATASIZE LT PUSH2 0x34 JUMPI PUSH0 CALLDATALOAD PUSH1 0xE0 SHR DUP1 PUSH4 0x696B3141 EQ PUSH2 0x38 JUMPI DUP1 PUSH4 0x6D43C4C9 EQ PUSH2 0x54 JUMPI JUMPDEST PUSH0 PUSH0 REVERT JUMPDEST PUSH2 0x52 PUSH1 0x4 DUP1 CALLDATASIZE SUB DUP2 ADD SWAP1 PUSH2 0x4D SWAP2 SWAP1 PUSH2 0x40B JUMP JUMPDEST PUSH2 0x84 JUMP JUMPDEST STOP JUMPDEST PUSH2 0x6E PUSH1 0x4 DUP1 CALLDATASIZE SUB DUP2 ADD SWAP1 PUSH2 0x69 SWAP2 SWAP1 PUSH2 0x493 JUMP JUMPDEST PUSH2 0x100 JUMP JUMPDEST PUSH1 0x40 MLOAD PUSH2 0x7B SWAP2 SWAP1 PUSH2 0x61A JUMP JUMPDEST PUSH1 0x40 MLOAD DUP1 SWAP2 SUB SWAP1 RETURN JUMPDEST PUSH0 PUSH0 DUP5 DUP2 MSTORE PUSH1 0x20 ADD SWAP1 DUP2 MSTORE PUSH1 0x20 ADD PUSH0 KECCAK256 PUSH1 0x40 MLOAD DUP1 PUSH1 0x40 ADD PUSH1 0x40 MSTORE DUP1 DUP5 DUP2 MSTORE PUSH1 0x20 ADD DUP4 DUP2 MSTORE POP SWAP1 DUP1 PUSH1 0x1 DUP2 SLOAD ADD DUP1 DUP3 SSTORE DUP1 SWAP2 POP POP PUSH1 0x1 SWAP1 SUB SWAP1 PUSH0 MSTORE PUSH1 0x20 PUSH0 KECCAK256 SWAP1 PUSH1 0x2 MUL ADD PUSH0 SWAP1 SWAP2 SWAP1 SWAP2 SWAP1 SWAP2 POP PUSH0 DUP3 ADD MLOAD DUP2 PUSH0 ADD SWAP1 DUP2 PUSH2 0xE2 SWAP2 SWAP1 PUSH2 0x840 JUMP JUMPDEST POP PUSH1 0x20 DUP3 ADD MLOAD DUP2 PUSH1 0x1 ADD SWAP1 DUP2 PUSH2 0xF8 SWAP2 SWAP1 PUSH2 0x840 JUMP JUMPDEST POP POP POP POP POP POP JUMP JUMPDEST PUSH1 0x60 PUSH0 PUSH0 DUP4 DUP2 MSTORE PUSH1 0x20 ADD SWAP1 DUP2 MSTORE PUSH1 0x20 ADD PUSH0 KECCAK256 DUP1 SLOAD DUP1 PUSH1 0x20 MUL PUSH1 0x20 ADD PUSH1 0x40 MLOAD SWAP1 DUP2 ADD PUSH1 0x40 MSTORE DUP1 SWAP3 SWAP2 SWAP1 DUP2 DUP2 MSTORE PUSH1 0x20 ADD PUSH0 SWAP1 JUMPDEST DUP3 DUP3 LT ISZERO PUSH2 0x280 JUMPI DUP4 DUP3 SWAP1 PUSH0 MSTORE PUSH1 0x20 PUSH0 KECCAK256 SWAP1 PUSH1 0x2 MUL ADD PUSH1 0x40 MLOAD DUP1 PUSH1 0x40 ADD PUSH1 0x40 MSTORE SWAP1 DUP2 PUSH0 DUP3 ADD DUP1 SLOAD PUSH2 0x161 SWAP1 PUSH2 0x667 JUMP JUMPDEST DUP1 PUSH1 0x1F ADD PUSH1 0x20 DUP1 SWAP2 DIV MUL PUSH1 0x20 ADD PUSH1 0x40 MLOAD SWAP1 DUP2 ADD PUSH1 0x40 MSTORE DUP1 SWAP3 SWAP2 SWAP1 DUP2 DUP2 MSTORE PUSH1 0x20 ADD DUP3 DUP1 SLOAD PUSH2 0x18D SWAP1 PUSH2 0x667 JUMP JUMPDEST DUP1 ISZERO PUSH2 0x1D8 JUMPI DUP1 PUSH1 0x1F LT PUSH2 0x1AF JUMPI PUSH2 0x100 DUP1 DUP4 SLOAD DIV MUL DUP4 MSTORE SWAP2 PUSH1 0x20 ADD SWAP2 PUSH2 0x1D8 JUMP JUMPDEST DUP3 ADD SWAP2 SWAP1 PUSH0 MSTORE PUSH1 0x20 PUSH0 KECCAK256 SWAP1 JUMPDEST DUP2 SLOAD DUP2 MSTORE SWAP1 PUSH1 0x1 ADD SWAP1 PUSH1 0x20 ADD DUP1 DUP4 GT PUSH2 0x1BB JUMPI DUP3 SWAP1 SUB PUSH1 0x1F AND DUP3 ADD SWAP2 JUMPDEST POP POP POP POP POP DUP2 MSTORE PUSH1 0x20 ADD PUSH1 0x1 DUP3 ADD DUP1 SLOAD PUSH2 0x1F1 SWAP1 PUSH2 0x667 JUMP JUMPDEST DUP1 PUSH1 0x1F ADD PUSH1 0x20 DUP1 SWAP2 DIV MUL PUSH1 0x20 ADD PUSH1 0x40 MLOAD SWAP1 DUP2 ADD PUSH1 0x40 MSTORE DUP1 SWAP3 SWAP2 SWAP1 DUP2 DUP2 MSTORE PUSH1 0x20 ADD DUP3 DUP1 SLOAD PUSH2 0x21D SWAP1 PUSH2 0x667 JUMP JUMPDEST DUP1 ISZERO PUSH2 0x268 JUMPI DUP1 PUSH1 0x1F LT PUSH2 0x23F JUMPI PUSH2 0x100 DUP1 DUP4 SLOAD DIV MUL DUP4 MSTORE SWAP2 PUSH1 0x20 ADD SWAP2 PUSH2 0x268 JUMP JUMPDEST DUP3 ADD SWAP2 SWAP1 PUSH0 MSTORE PUSH1 0x20 PUSH0 KECCAK256 SWAP1 JUMPDEST DUP2 SLOAD DUP2 MSTORE SWAP1 PUSH1 0x1 ADD SWAP1 PUSH1 0x20 ADD DUP1 DUP4 GT PUSH2 0x24B JUMPI DUP3 SWAP1 SUB PUSH1 0x1F AND DUP3 ADD SWAP2 JUMPDEST POP POP POP POP POP DUP2 MSTORE POP POP DUP2 MSTORE PUSH1 0x20 ADD SWAP1 PUSH1 0x1 ADD SWAP1 PUSH2 0x131 JUMP JUMPDEST POP POP POP POP SWAP1 POP SWAP2 SWAP1 POP JUMP JUMPDEST PUSH0 PUSH1 0x40 MLOAD SWAP1 POP SWAP1 JUMP JUMPDEST PUSH0 PUSH0 REVERT JUMPDEST PUSH0 PUSH0 REVERT JUMPDEST PUSH0 DUP2 SWAP1 POP SWAP2 SWAP1 POP JUMP JUMPDEST PUSH2 0x2AE DUP2 PUSH2 0x29C JUMP JUMPDEST DUP2 EQ PUSH2 0x2B8 JUMPI PUSH0 PUSH0 REVERT JUMPDEST POP JUMP JUMPDEST PUSH0 DUP2 CALLDATALOAD SWAP1 POP PUSH2 0x2C9 DUP2 PUSH2 0x2A5 JUMP JUMPDEST SWAP3 SWAP2 POP POP JUMP JUMPDEST PUSH0 PUSH0 REVERT JUMPDEST PUSH0 PUSH0 REVERT JUMPDEST PUSH0 PUSH1 0x1F NOT PUSH1 0x1F DUP4 ADD AND SWAP1 POP SWAP2 SWAP1 POP JUMP JUMPDEST PUSH32 0x4E487B7100000000000000000000000000000000000000000000000000000000 PUSH0 MSTORE PUSH1 0x41 PUSH1 0x4 MSTORE PUSH1 0x24 PUSH0 REVERT JUMPDEST PUSH2 0x31D DUP3 PUSH2 0x2D7 JUMP JUMPDEST DUP2 ADD DUP2 DUP2 LT PUSH8 0xFFFFFFFFFFFFFFFF DUP3 GT OR ISZERO PUSH2 0x33C JUMPI PUSH2 0x33B PUSH2 0x2E7 JUMP JUMPDEST JUMPDEST DUP1 PUSH1 0x40 MSTORE POP POP POP JUMP JUMPDEST PUSH0 PUSH2 0x34E PUSH2 0x28B JUMP JUMPDEST SWAP1 POP PUSH2 0x35A DUP3 DUP3 PUSH2 0x314 JUMP JUMPDEST SWAP2 SWAP1 POP JUMP JUMPDEST PUSH0 PUSH8 0xFFFFFFFFFFFFFFFF DUP3 GT ISZERO PUSH2 0x379 JUMPI PUSH2 0x378 PUSH2 0x2E7 JUMP JUMPDEST JUMPDEST PUSH2 0x382 DUP3 PUSH2 0x2D7 JUMP JUMPDEST SWAP1 POP PUSH1 0x20 DUP2 ADD SWAP1 POP SWAP2 SWAP1 POP JUMP JUMPDEST DUP3 DUP2 DUP4 CALLDATACOPY PUSH0 DUP4 DUP4 ADD MSTORE POP POP POP JUMP JUMPDEST PUSH0 PUSH2 0x3AF PUSH2 0x3AA DUP5 PUSH2 0x35F JUMP JUMPDEST PUSH2 0x345 JUMP JUMPDEST SWAP1 POP DUP3 DUP2 MSTORE PUSH1 0x20 DUP2 ADD DUP5 DUP5 DUP5 ADD GT ISZERO PUSH2 0x3CB JUMPI PUSH2 0x3CA PUSH2 0x2D3 JUMP JUMPDEST JUMPDEST PUSH2 0x3D6 DUP5 DUP3 DUP6 PUSH2 0x38F JUMP JUMPDEST POP SWAP4 SWAP3 POP POP POP JUMP JUMPDEST PUSH0 DUP3 PUSH1 0x1F DUP4 ADD SLT PUSH2 0x3F2 JUMPI PUSH2 0x3F1 PUSH2 0x2CF JUMP JUMPDEST JUMPDEST DUP2 CALLDATALOAD PUSH2 0x402 DUP5 DUP3 PUSH1 0x20 DUP7 ADD PUSH2 0x39D JUMP JUMPDEST SWAP2 POP POP SWAP3 SWAP2 POP POP JUMP JUMPDEST PUSH0 PUSH0 PUSH0 PUSH1 0x60 DUP5 DUP7 SUB SLT ISZERO PUSH2 0x422 JUMPI PUSH2 0x421 PUSH2 0x294 JUMP JUMPDEST JUMPDEST PUSH0 PUSH2 0x42F DUP7 DUP3 DUP8 ADD PUSH2 0x2BB JUMP JUMPDEST SWAP4 POP POP PUSH1 0x20 DUP5 ADD CALLDATALOAD PUSH8 0xFFFFFFFFFFFFFFFF DUP2 GT ISZERO PUSH2 0x450 JUMPI PUSH2 0x44F PUSH2 0x298 JUMP JUMPDEST JUMPDEST PUSH2 0x45C DUP7 DUP3 DUP8 ADD PUSH2 0x3DE JUMP JUMPDEST SWAP3 POP POP PUSH1 0x40 DUP5 ADD CALLDATALOAD PUSH8 0xFFFFFFFFFFFFFFFF DUP2 GT ISZERO PUSH2 0x47D JUMPI PUSH2 0x47C PUSH2 0x298 JUMP JUMPDEST JUMPDEST PUSH2 0x489 DUP7 DUP3 DUP8 ADD PUSH2 0x3DE JUMP JUMPDEST SWAP2 POP POP SWAP3 POP SWAP3 POP SWAP3 JUMP JUMPDEST PUSH0 PUSH1 0x20 DUP3 DUP5 SUB SLT ISZERO PUSH2 0x4A8 JUMPI PUSH2 0x4A7 PUSH2 0x294 JUMP JUMPDEST JUMPDEST PUSH0 PUSH2 0x4B5 DUP5 DUP3 DUP6 ADD PUSH2 0x2BB JUMP JUMPDEST SWAP2 POP POP SWAP3 SWAP2 POP POP JUMP JUMPDEST PUSH0 DUP2 MLOAD SWAP1 POP SWAP2 SWAP1 POP JUMP JUMPDEST PUSH0 DUP3 DUP3 MSTORE PUSH1 0x20 DUP3 ADD SWAP1 POP SWAP3 SWAP2 POP POP JUMP JUMPDEST PUSH0 DUP2 SWAP1 POP PUSH1 0x20 DUP3 ADD SWAP1 POP SWAP2 SWAP1 POP JUMP JUMPDEST PUSH0 DUP2 MLOAD SWAP1 POP SWAP2 SWAP1 POP JUMP JUMPDEST PUSH0 DUP3 DUP3 MSTORE PUSH1 0x20 DUP3 ADD SWAP1 POP SWAP3 SWAP2 POP POP JUMP JUMPDEST DUP3 DUP2 DUP4 MCOPY PUSH0 DUP4 DUP4 ADD MSTORE POP POP POP JUMP JUMPDEST PUSH0 PUSH2 0x519 DUP3 PUSH2 0x4E7 JUMP JUMPDEST PUSH2 0x523 DUP2 DUP6 PUSH2 0x4F1 JUMP JUMPDEST SWAP4 POP PUSH2 0x533 DUP2 DUP6 PUSH1 0x20 DUP7 ADD PUSH2 0x501 JUMP JUMPDEST PUSH2 0x53C DUP2 PUSH2 0x2D7 JUMP JUMPDEST DUP5 ADD SWAP2 POP POP SWAP3 SWAP2 POP POP JUMP JUMPDEST PUSH0 PUSH1 0x40 DUP4 ADD PUSH0 DUP4 ADD MLOAD DUP5 DUP3 SUB PUSH0 DUP7 ADD MSTORE PUSH2 0x561 DUP3 DUP3 PUSH2 0x50F JUMP JUMPDEST SWAP2 POP POP PUSH1 0x20 DUP4 ADD MLOAD DUP5 DUP3 SUB PUSH1 0x20 DUP7 ADD MSTORE PUSH2 0x57B DUP3 DUP3 PUSH2 0x50F JUMP JUMPDEST SWAP2 POP POP DUP1 SWAP2 POP POP SWAP3 SWAP2 POP POP JUMP JUMPDEST PUSH0 PUSH2 0x593 DUP4 DUP4 PUSH2 0x547 JUMP JUMPDEST SWAP1 POP SWAP3 SWAP2 POP POP JUMP JUMPDEST PUSH0 PUSH1 0x20 DUP3 ADD SWAP1 POP SWAP2 SWAP1 POP JUMP JUMPDEST PUSH0 PUSH2 0x5B1 DUP3 PUSH2 0x4BE JUMP JUMPDEST PUSH2 0x5BB DUP2 DUP6 PUSH2 0x4C8 JUMP JUMPDEST SWAP4 POP DUP4 PUSH1 0x20 DUP3 MUL DUP6 ADD PUSH2 0x5CD DUP6 PUSH2 0x4D8 JUMP JUMPDEST DUP1 PUSH0 JUMPDEST DUP6 DUP2 LT ISZERO PUSH2 0x608 JUMPI DUP5 DUP5 SUB DUP10 MSTORE DUP2 MLOAD PUSH2 0x5E9 DUP6 DUP3 PUSH2 0x588 JUMP JUMPDEST SWAP5 POP PUSH2 0x5F4 DUP4 PUSH2 0x59B JUMP JUMPDEST SWAP3 POP PUSH1 0x20 DUP11 ADD SWAP10 POP POP PUSH1 0x1 DUP2 ADD SWAP1 POP PUSH2 0x5D0 JUMP JUMPDEST POP DUP3 SWAP8 POP DUP8 SWAP6 POP POP POP POP POP POP SWAP3 SWAP2 POP POP JUMP JUMPDEST PUSH0 PUSH1 0x20 DUP3 ADD SWAP1 POP DUP2 DUP2 SUB PUSH0 DUP4 ADD MSTORE PUSH2 0x632 DUP2 DUP5 PUSH2 0x5A7 JUMP JUMPDEST SWAP1 POP SWAP3 SWAP2 POP POP JUMP JUMPDEST PUSH32 0x4E487B7100000000000000000000000000000000000000000000000000000000 PUSH0 MSTORE PUSH1 0x22 PUSH1 0x4 MSTORE PUSH1 0x24 PUSH0 REVERT JUMPDEST PUSH0 PUSH1 0x2 DUP3 DIV SWAP1 POP PUSH1 0x1 DUP3 AND DUP1 PUSH2 0x67E JUMPI PUSH1 0x7F DUP3 AND SWAP2 POP JUMPDEST PUSH1 0x20 DUP3 LT DUP2 SUB PUSH2 0x691 JUMPI PUSH2 0x690 PUSH2 0x63A JUMP JUMPDEST JUMPDEST POP SWAP2 SWAP1 POP JUMP JUMPDEST PUSH0 DUP2 SWAP1 POP DUP2 PUSH0 MSTORE PUSH1 0x20 PUSH0 KECCAK256 SWAP1 POP SWAP2 SWAP1 POP JUMP JUMPDEST PUSH0 PUSH1 0x20 PUSH1 0x1F DUP4 ADD DIV SWAP1 POP SWAP2 SWAP1 POP JUMP JUMPDEST PUSH0 DUP3 DUP3 SHL SWAP1 POP SWAP3 SWAP2 POP POP JUMP JUMPDEST PUSH0 PUSH1 0x8 DUP4 MUL PUSH2 0x6F3 PUSH32 0xFFFFFFFFFFFFFFFFFFFFFFFFFFFFFFFFFFFFFFFFFFFFFFFFFFFFFFFFFFFFFFFF DUP3 PUSH2 0x6B8 JUMP JUMPDEST PUSH2 0x6FD DUP7 DUP4 PUSH2 0x6B8 JUMP JUMPDEST SWAP6 POP DUP1 NOT DUP5 AND SWAP4 POP DUP1 DUP7 AND DUP5 OR SWAP3 POP POP POP SWAP4 SWAP3 POP POP POP JUMP JUMPDEST PUSH0 DUP2 SWAP1 POP SWAP2 SWAP1 POP JUMP JUMPDEST PUSH0 DUP2 SWAP1 POP SWAP2 SWAP1 POP JUMP JUMPDEST PUSH0 PUSH2 0x741 PUSH2 0x73C PUSH2 0x737 DUP5 PUSH2 0x715 JUMP JUMPDEST PUSH2 0x71E JUMP JUMPDEST PUSH2 0x715 JUMP JUMPDEST SWAP1 POP SWAP2 SWAP1 POP JUMP JUMPDEST PUSH0 DUP2 SWAP1 POP SWAP2 SWAP1 POP JUMP JUMPDEST PUSH2 0x75A DUP4 PUSH2 0x727 JUMP JUMPDEST PUSH2 0x76E PUSH2 0x766 DUP3 PUSH2 0x748 JUMP JUMPDEST DUP5 DUP5 SLOAD PUSH2 0x6C4 JUMP JUMPDEST DUP3 SSTORE POP POP POP POP JUMP JUMPDEST PUSH0 PUSH0 SWAP1 POP SWAP1 JUMP JUMPDEST PUSH2 0x785 PUSH2 0x776 JUMP JUMPDEST PUSH2 0x790 DUP2 DUP5 DUP5 PUSH2 0x751 JUMP JUMPDEST POP POP POP JUMP JUMPDEST JUMPDEST DUP2 DUP2 LT ISZERO PUSH2 0x7B3 JUMPI PUSH2 0x7A8 PUSH0 DUP3 PUSH2 0x77D JUMP JUMPDEST PUSH1 0x1 DUP2 ADD SWAP1 POP PUSH2 0x796 JUMP JUMPDEST POP POP JUMP JUMPDEST PUSH1 0x1F DUP3 GT ISZERO PUSH2 0x7F8 JUMPI PUSH2 0x7C9 DUP2 PUSH2 0x697 JUMP JUMPDEST PUSH2 0x7D2 DUP5 PUSH2 0x6A9 JUMP JUMPDEST DUP2 ADD PUSH1 0x20 DUP6 LT ISZERO PUSH2 0x7E1 JUMPI DUP2 SWAP1 POP JUMPDEST PUSH2 0x7F5 PUSH2 0x7ED DUP6 PUSH2 0x6A9 JUMP JUMPDEST DUP4 ADD DUP3 PUSH2 0x795 JUMP JUMPDEST POP POP JUMPDEST POP POP POP JUMP JUMPDEST PUSH0 DUP3 DUP3 SHR SWAP1 POP SWAP3 SWAP2 POP POP JUMP JUMPDEST PUSH0 PUSH2 0x818 PUSH0 NOT DUP5 PUSH1 0x8 MUL PUSH2 0x7FD JUMP JUMPDEST NOT DUP1 DUP4 AND SWAP2 POP POP SWAP3 SWAP2 POP POP JUMP JUMPDEST PUSH0 PUSH2 0x830 DUP4 DUP4 PUSH2 0x809 JUMP JUMPDEST SWAP2 POP DUP3 PUSH1 0x2 MUL DUP3 OR SWAP1 POP SWAP3 SWAP2 POP POP JUMP JUMPDEST PUSH2 0x849 DUP3 PUSH2 0x4E7 JUMP JUMPDEST PUSH8 0xFFFFFFFFFFFFFFFF DUP2 GT ISZERO PUSH2 0x862 JUMPI PUSH2 0x861 PUSH2 0x2E7 JUMP JUMPDEST JUMPDEST PUSH2 0x86C DUP3 SLOAD PUSH2 0x667 JUMP JUMPDEST PUSH2 0x877 DUP3 DUP3 DUP6 PUSH2 0x7B7 JUMP JUMPDEST PUSH0 PUSH1 0x20 SWAP1 POP PUSH1 0x1F DUP4 GT PUSH1 0x1 DUP2 EQ PUSH2 0x8A8 JUMPI PUSH0 DUP5 ISZERO PUSH2 0x896 JUMPI DUP3 DUP8 ADD MLOAD SWAP1 POP JUMPDEST PUSH2 0x8A0 DUP6 DUP3 PUSH2 0x825 JUMP JUMPDEST DUP7 SSTORE POP PUSH2 0x907 JUMP JUMPDEST PUSH1 0x1F NOT DUP5 AND PUSH2 0x8B6 DUP7 PUSH2 0x697 JUMP JUMPDEST PUSH0 JUMPDEST DUP3 DUP2 LT ISZERO PUSH2 0x8DD JUMPI DUP5 DUP10 ADD MLOAD DUP3 SSTORE PUSH1 0x1 DUP3 ADD SWAP2 POP PUSH1 0x20 DUP6 ADD SWAP5 POP PUSH1 0x20 DUP2 ADD SWAP1 POP PUSH2 0x8B8 JUMP JUMPDEST DUP7 DUP4 LT ISZERO PUSH2 0x8FA JUMPI DUP5 DUP10 ADD MLOAD PUSH2 0x8F6 PUSH1 0x1F DUP10 AND DUP3 PUSH2 0x809 JUMP JUMPDEST DUP4 SSTORE POP JUMPDEST PUSH1 0x1 PUSH1 0x2 DUP9 MUL ADD DUP9 SSTORE POP POP POP JUMPDEST POP POP POP POP POP POP JUMP INVALID LOG2 PUSH5 0x6970667358 0x22 SLT KECCAK256 SWAP14 SWAP2 TLOAD CODECOPY CALLDATACOPY 0x2B EXTCALL EXTCODESIZE SLOAD DUP3 DUP5 PUSH5 0x6196B31957 RETF GASPRICE CALLVALUE CALLVALUE PUSH4 0x38A8750C 0x2F CODECOPY 0xAE 0xEA SWAP15 ADD PUSH5 0x736F6C6343 STOP ADDMOD 0x1E STOP CALLER "
				},
				"gasEstimates": {
					"creation": {
						"codeDepositCost": "474600",
						"executionCost": "509",
						"totalCost": "475109"
					},
					"external": {
						"access(bytes32)": "infinite",
						"index(bytes32,string,string)": "infinite"
					}
				},
				"methodIdentifiers": {
					"access(bytes32)": "6d43c4c9",
					"index(bytes32,string,string)": "696b3141"
				}
			},
			"storageLayout": {
				"storage": [
					{
						"astId": 12,
						"contract": "smart-contract/EHRSharing.sol:EHRSharing",
						"label": "records",
						"offset": 0,
						"slot": "0",
						"type": "t_mapping(t_bytes32,t_array(t_struct(Record)6_storage)dyn_storage)"
					}
				],
				"types": {
					"t_array(t_struct(Record)6_storage)dyn_storage": {
						"base": "t_struct(Record)6_storage",
						"encoding": "dynamic_array",
						"label": "struct EHRSharing.Record[]",
						"numberOfBytes": "32"
					},
					"t_bytes32": {
						"encoding": "inplace",
						"label": "bytes32",
						"numberOfBytes": "32"
					},
					"t_mapping(t_bytes32,t_array(t_struct(Record)6_storage)dyn_storage)": {
						"encoding": "mapping",
						"key": "t_bytes32",
						"label": "mapping(bytes32 => struct EHRSharing.Record[])",
						"numberOfBytes": "32",
						"value": "t_array(t_struct(Record)6_storage)dyn_storage"
					},
					"t_string_storage": {
						"encoding": "bytes",
						"label": "string",
						"numberOfBytes": "32"
					},
					"t_struct(Record)6_storage": {
						"encoding": "inplace",
						"label": "struct EHRSharing.Record",
						"members": [
							{
								"astId": 3,
								"contract": "smart-contract/EHRSharing.sol:EHRSharing",
								"label": "dataGeneratorID",
								"offset": 0,
								"slot": "0",
								"type": "t_string_storage"
							},
							{
								"astId": 5,
								"contract": "smart-contract/EHRSharing.sol:EHRSharing",
								"label": "recordID",
								"offset": 0,
								"slot": "1",
								"type": "t_string_storage"
							}
						],
						"numberOfBytes": "64"
					}
				}
			},
			"userdoc": {
				"kind": "user",
				"methods": {
					"access(bytes32)": {
						"notice": "Access all records for a hashed patient ID"
					},
					"index(bytes32,string,string)": {
						"notice": "Index a new EHR record on the blockchain"
					}
				},
				"version": 1
			}
		}
	}
}