{
	"data": {
		"bytecode": {
			"linkReferences": {},
			"object": "6080604052348015600e575f5ffd5b50610bc48061001c5f395ff3fe608060405234801561000f575f5ffd5b506004361061003f575f3560e01c806318a231a914610043578063696b3141146100615780636d43c4c91461007d575b5f5ffd5b61004b6100ad565b6040516100589190610476565b60405180910390f35b61007b6004803603810190610076919061060d565b610103565b005b61009760048036038101906100929190610695565b61022b565b6040516100a4919061081c565b60405180910390f35b606060018054806020026020016040519081016040528092919081815260200182805480156100f957602002820191905f5260205f20905b8154815260200190600101908083116100e5575b5050505050905090565b60025f8481526020019081526020015f205f9054906101000a900460ff1661017557600183908060018154018082558091505060019003905f5260205f20015f9091909190915055600160025f8581526020019081526020015f205f6101000a81548160ff0219169083151502179055505b5f5f8481526020019081526020015f20604051806040016040528084815260200183815250908060018154018082558091505060019003905f5260205f2090600202015f909190919091505f820151815f0190816101d39190610a42565b5060208201518160010190816101e99190610a42565b505050827f07d4886a6d1c585031e1f8d9ea78ed472977712dd44c599ee21b09be58a32777838360405161021e929190610b59565b60405180910390a2505050565b60605f5f8381526020019081526020015f20805480602002602001604051908101604052809291908181526020015f905b828210156103ab578382905f5260205f2090600202016040518060400160405290815f8201805461028c90610869565b80601f01602080910402602001604051908101604052809291908181526020018280546102b890610869565b80156103035780601f106102da57610100808354040283529160200191610303565b820191905f5260205f20905b8154815290600101906020018083116102e657829003601f168201915b5050505050815260200160018201805461031c90610869565b80601f016020809104026020016040519081016040528092919081815260200182805461034890610869565b80156103935780601f1061036a57610100808354040283529160200191610393565b820191905f5260205f20905b81548152906001019060200180831161037657829003601f168201915b5050505050815250508152602001906001019061025c565b505050509050919050565b5f81519050919050565b5f82825260208201905092915050565b5f819050602082019050919050565b5f819050919050565b6103f1816103df565b82525050565b5f61040283836103e8565b60208301905092915050565b5f602082019050919050565b5f610424826103b6565b61042e81856103c0565b9350610439836103d0565b805f5b8381101561046957815161045088826103f7565b975061045b8361040e565b92505060018101905061043c565b5085935050505092915050565b5f6020820190508181035f83015261048e818461041a565b905092915050565b5f604051905090565b5f5ffd5b5f5ffd5b6104b0816103df565b81146104ba575f5ffd5b50565b5f813590506104cb816104a7565b92915050565b5f5ffd5b5f5ffd5b5f601f19601f8301169050919050565b7f4e487b71000000000000000000000000000000000000000000000000000000005f52604160045260245ffd5b61051f826104d9565b810181811067ffffffffffffffff8211171561053e5761053d6104e9565b5b80604052505050565b5f610550610496565b905061055c8282610516565b919050565b5f67ffffffffffffffff82111561057b5761057a6104e9565b5b610584826104d9565b9050602081019050919050565b828183375f83830152505050565b5f6105b16105ac84610561565b610547565b9050828152602081018484840111156105cd576105cc6104d5565b5b6105d8848285610591565b509392505050565b5f82601f8301126105f4576105f36104d1565b5b813561060484826020860161059f565b91505092915050565b5f5f5f606084860312156106245761062361049f565b5b5f610631868287016104bd565b935050602084013567ffffffffffffffff811115610652576106516104a3565b5b61065e868287016105e0565b925050604084013567ffffffffffffffff81111561067f5761067e6104a3565b5b61068b868287016105e0565b9150509250925092565b5f602082840312156106aa576106a961049f565b5b5f6106b7848285016104bd565b91505092915050565b5f81519050919050565b5f82825260208201905092915050565b5f819050602082019050919050565b5f81519050919050565b5f82825260208201905092915050565b8281835e5f83830152505050565b5f61071b826106e9565b61072581856106f3565b9350610735818560208601610703565b61073e816104d9565b840191505092915050565b5f604083015f8301518482035f8601526107638282610711565b9150506020830151848203602086015261077d8282610711565b9150508091505092915050565b5f6107958383610749565b905092915050565b5f602082019050919050565b5f6107b3826106c0565b6107bd81856106ca565b9350836020820285016107cf856106da565b805f5b8581101561080a57848403895281516107eb858261078a565b94506107f68361079d565b925060208a019950506001810190506107d2565b50829750879550505050505092915050565b5f6020820190508181035f83015261083481846107a9565b905092915050565b7f4e487b71000000000000000000000000000000000000000000000000000000005f52602260045260245ffd5b5f600282049050600182168061088057607f821691505b6020821081036108935761089261083c565b5b50919050565b5f819050815f5260205f209050919050565b5f6020601f8301049050919050565b5f82821b905092915050565b5f600883026108f57fffffffffffffffffffffffffffffffffffffffffffffffffffffffffffffffff826108ba565b6108ff86836108ba565b95508019841693508086168417925050509392505050565b5f819050919050565b5f819050919050565b5f61094361093e61093984610917565b610920565b610917565b9050919050565b5f819050919050565b61095c83610929565b6109706109688261094a565b8484546108c6565b825550505050565b5f5f905090565b610987610978565b610992818484610953565b505050565b5b818110156109b5576109aa5f8261097f565b600181019050610998565b5050565b601f8211156109fa576109cb81610899565b6109d4846108ab565b810160208510156109e3578190505b6109f76109ef856108ab565b830182610997565b50505b505050565b5f82821c905092915050565b5f610a1a5f19846008026109ff565b1980831691505092915050565b5f610a328383610a0b565b9150826002028217905092915050565b610a4b826106e9565b67ffffffffffffffff811115610a6457610a636104e9565b5b610a6e8254610869565b610a798282856109b9565b5f60209050601f831160018114610aaa575f8415610a98578287015190505b610aa28582610a27565b865550610b09565b601f198416610ab886610899565b5f5b82811015610adf57848901518255600182019150602085019450602081019050610aba565b86831015610afc5784890151610af8601f891682610a0b565b8355505b6001600288020188555050505b505050505050565b5f82825260208201905092915050565b5f610b2b826106e9565b610b358185610b11565b9350610b45818560208601610703565b610b4e816104d9565b840191505092915050565b5f6040820190508181035f830152610b718185610b21565b90508181036020830152610b858184610b21565b9050939250505056fea26469706673582212205819377553f8021720b6c51a154cab7cb4ec9ac0bade4b47e6e6941135aefc0964736f6c634300081e0033",
			"opcodes": "PUSH1 0x80 PUSH1 0x40 MSTORE CALLVALUE DUP1 ISZERO PUSH1 0xE JUMPI PUSH0 PUSH0 REVERT JUMPDEST POP PUSH2 0xBC4 DUP1 PUSH2 0x1C PUSH0 CODECOPY PUSH0 RETURN INVALID PUSH1 0x80 PUSH1 0x40 MSTORE CALLVALUE DUP1 ISZERO PUSH2 0xF JUMPI PUSH0 PUSH0 REVERT JUMPDEST POP PUSH1 0x4 CALLDATASIZE LT PUSH2 0x3F JUMPI PUSH0 CALLDATALOAD PUSH1 0xE0 SHR DUP1 PUSH4 0x18A231A9 EQ PUSH2 0x43 JUMPI DUP1 PUSH4 0x696B3141 EQ PUSH2 0x61 JUMPI DUP1 PUSH4 0x6D43C4C9 EQ PUSH2 0x7D JUMPI JUMPDEST PUSH0 PUSH0 REVERT JUMPDEST PUSH2 0x4B PUSH2 0xAD JUMP JUMPDEST PUSH1 0x40 MLOAD PUSH2 0x58 SWAP2 SWAP1 PUSH2 0x476 JUMP JUMPDEST PUSH1 0x40 MLOAD DUP1 SWAP2 SUB SWAP1 RETURN JUMPDEST PUSH2 0x7B PUSH1 0x4 DUP1 CALLDATASIZE SUB DUP2 ADD SWAP1 PUSH2 0x76 SWAP2 SWAP1 PUSH2 0x60D JUMP JUMPDEST PUSH2 0x103 JUMP JUMPDEST STOP JUMPDEST PUSH2 0x97 PUSH1 0x4 DUP1 CALLDATASIZE SUB DUP2 ADD SWAP1 PUSH2 0x92 SWAP2 SWAP1 PUSH2 0x695 JUMP JUMPDEST PUSH2 0x22B JUMP JUMPDEST PUSH1 0x40 MLOAD PUSH2 0xA4 SWAP2 SWAP1 PUSH2 0x81C JUMP JUMPDEST PUSH1 0x40 MLOAD DUP1 SWAP2 SUB SWAP1 RETURN JUMPDEST PUSH1 0x60 PUSH1 0x1 DUP1 SLOAD DUP1 PUSH1 0x20 MUL PUSH1 0x20 ADD PUSH1 0x40 MLOAD SWAP1 DUP2 ADD PUSH1 0x40 MSTORE DUP1 SWAP3 SWAP2 SWAP1 DUP2 DUP2 MSTORE PUSH1 0x20 ADD DUP3 DUP1 SLOAD DUP1 ISZERO PUSH2 0xF9 JUMPI PUSH1 0x20 MUL DUP3 ADD SWAP2 SWAP1 PUSH0 MSTORE PUSH1 0x20 PUSH0 KECCAK256 SWAP1 JUMPDEST DUP2 SLOAD DUP2 MSTORE PUSH1 0x20 ADD SWAP1 PUSH1 0x1 ADD SWAP1 DUP1 DUP4 GT PUSH2 0xE5 JUMPI JUMPDEST POP POP POP POP POP SWAP1 POP SWAP1 JUMP JUMPDEST PUSH1 0x2 PUSH0 DUP5 DUP2 MSTORE PUSH1 0x20 ADD SWAP1 DUP2 MSTORE PUSH1 0x20 ADD PUSH0 KECCAK256 PUSH0 SWAP1 SLOAD SWAP1 PUSH2 0x100 EXP SWAP1 DIV PUSH1 0xFF AND PUSH2 0x175 JUMPI PUSH1 0x1 DUP4 SWAP1 DUP1 PUSH1 0x1 DUP2 SLOAD ADD DUP1 DUP3 SSTORE DUP1 SWAP2 POP POP PUSH1 0x1 SWAP1 SUB SWAP1 PUSH0 MSTORE PUSH1 0x20 PUSH0 KECCAK256 ADD PUSH0 SWAP1 SWAP2 SWAP1 SWAP2 SWAP1 SWAP2 POP SSTORE PUSH1 0x1 PUSH1 0x2 PUSH0 DUP6 DUP2 MSTORE PUSH1 0x20 ADD SWAP1 DUP2 MSTORE PUSH1 0x20 ADD PUSH0 KECCAK256 PUSH0 PUSH2 0x100 EXP DUP2 SLOAD DUP2 PUSH1 0xFF MUL NOT AND SWAP1 DUP4 ISZERO ISZERO MUL OR SWAP1 SSTORE POP JUMPDEST PUSH0 PUSH0 DUP5 DUP2 MSTORE PUSH1 0x20 ADD SWAP1 DUP2 MSTORE PUSH1 0x20 ADD PUSH0 KECCAK256 PUSH1 0x40 MLOAD DUP1 PUSH1 0x40 ADD PUSH1 0x40 MSTORE DUP1 DUP5 DUP2 MSTORE PUSH1 0x20 ADD DUP4 DUP2 MSTORE POP SWAP1 DUP1 PUSH1 0x1 DUP2 SLOAD ADD DUP1 DUP3 SSTORE DUP1 SWAP2 POP POP PUSH1 0x1 SWAP1 SUB SWAP1 PUSH0 MSTORE PUSH1 0x20 PUSH0 KECCAK256 SWAP1 PUSH1 0x2 MUL ADD PUSH0 SWAP1 SWAP2 SWAP1 SWAP2 SWAP1 SWAP2 POP PUSH0 DUP3 ADD MLOAD DUP2 PUSH0 ADD SWAP1 DUP2 PUSH2 0x1D3 SWAP2 SWAP1 PUSH2 0xA42 JUMP JUMPDEST POP PUSH1 0x20 DUP3 ADD MLOAD DUP2 PUSH1 0x1 ADD SWAP1 DUP2 PUSH2 0x1E9 SWAP2 SWAP1 PUSH2 0xA42 JUMP JUMPDEST POP POP POP DUP3 PUSH32 0x7D4886A6D1C585031E1F8D9EA78ED472977712DD44C599EE21B09BE58A32777 DUP4 DUP4 PUSH1 0x40 MLOAD PUSH2 0x21E SWAP3 SWAP2 SWAP1 PUSH2 0xB59 JUMP JUMPDEST PUSH1 0x40 MLOAD DUP1 SWAP2 SUB SWAP1 LOG2 POP POP POP JUMP JUMPDEST PUSH1 0x60 PUSH0 PUSH0 DUP4 DUP2 MSTORE PUSH1 0x20 ADD SWAP1 DUP2 MSTORE PUSH1 0x20 ADD PUSH0 KECCAK256 DUP1 SLOAD DUP1 PUSH1 0x20 MUL PUSH1 0x20 ADD PUSH1 0x40 MLOAD SWAP1 DUP2 ADD PUSH1 0x40 MSTORE DUP1 SWAP3 SWAP2 SWAP1 DUP2 DUP2 MSTORE PUSH1 0x20 ADD PUSH0 SWAP1 JUMPDEST DUP3 DUP3 LT ISZERO PUSH2 0x3AB JUMPI DUP4 DUP3 SWAP1 PUSH0 MSTORE PUSH1 0x20 PUSH0 KECCAK256 SWAP1 PUSH1 0x2 MUL ADD PUSH1 0x40 MLOAD DUP1 PUSH1 0x40 ADD PUSH1 0x40 MSTORE SWAP1 DUP2 PUSH0 DUP3 ADD DUP1 SLOAD PUSH2 0x28C SWAP1 PUSH2 0x869 JUMP JUMPDEST DUP1 PUSH1 0x1F ADD PUSH1 0x20 DUP1 SWAP2 DIV MUL PUSH1 0x20 ADD PUSH1 0x40 MLOAD SWAP1 DUP2 ADD PUSH1 0x40 MSTORE DUP1 SWAP3 SWAP2 SWAP1 DUP2 DUP2 MSTORE PUSH1 0x20 ADD DUP3 DUP1 SLOAD PUSH2 0x2B8 SWAP1 PUSH2 0x869 JUMP JUMPDEST DUP1 ISZERO PUSH2 0x303 JUMPI DUP1 PUSH1 0x1F LT PUSH2 0x2DA JUMPI PUSH2 0x100 DUP1 DUP4 SLOAD DIV MUL DUP4 MSTORE SWAP2 PUSH1 0x20 ADD SWAP2 PUSH2 0x303 JUMP JUMPDEST DUP3 ADD SWAP2 SWAP1 PUSH0 MSTORE PUSH1 0x20 PUSH0 KECCAK256 SWAP1 JUMPDEST DUP2 SLOAD DUP2 MSTORE SWAP1 PUSH1 0x1 ADD SWAP1 PUSH1 0x20 ADD DUP1 DUP4 GT PUSH2 0x2E6 JUMPI DUP3 SWAP1 SUB PUSH1 0x1F AND DUP3 ADD SWAP2 JUMPDEST POP POP POP POP POP DUP2 MSTORE PUSH1 0x20 ADD PUSH1 0x1 DUP3 ADD DUP1 SLOAD PUSH2 0x31C SWAP1 PUSH2 0x869 JUMP JUMPDEST DUP1 PUSH1 0x1F ADD PUSH1 0x20 DUP1 SWAP2 DIV MUL PUSH1 0x20 ADD PUSH1 0x40 MLOAD SWAP1 DUP2 ADD PUSH1 0x40 MSTORE DUP1 SWAP3 SWAP2 SWAP1 DUP2 DUP2 MSTORE PUSH1 0x20 ADD DUP3 DUP1 SLOAD PUSH2 0x348 SWAP1 PUSH2 0x869 JUMP JUMPDEST DUP1 ISZERO PUSH2 0x393 JUMPI DUP1 PUSH1 0x1F LT PUSH2 0x36A JUMPI PUSH2 0x100 DUP1 DUP4 SLOAD DIV MUL DUP4 MSTORE SWAP2 PUSH1 0x20 ADD SWAP2 PUSH2 0x393 JUMP JUMPDEST DUP3 ADD SWAP2 SWAP1 PUSH0 MSTORE PUSH1 0x20 PUSH0 KECCAK256 SWAP1 JUMPDEST DUP2 SLOAD DUP2 MSTORE SWAP1 PUSH1 0x1 ADD SWAP1 PUSH1 0x20 ADD DUP1 DUP4 GT PUSH2 0x376 JUMPI DUP3 SWAP1 SUB PUSH1 0x1F AND DUP3 ADD SWAP2 JUMPDEST POP POP POP POP POP DUP2 MSTORE POP POP DUP2 MSTORE PUSH1 0x20 ADD SWAP1 PUSH1 0x1 ADD SWAP1 PUSH2 0x25C JUMP JUMPDEST POP POP POP POP SWAP1 POP SWAP2 SWAP1 POP JUMP JUMPDEST PUSH0 DUP2 MLOAD SWAP1 POP SWAP2 SWAP1 POP JUMP JUMPDEST PUSH0 DUP3 DUP3 MSTORE PUSH1 0x20 DUP3 ADD SWAP1 POP SWAP3 SWAP2 POP POP JUMP JUMPDEST PUSH0 DUP2 SWAP1 POP PUSH1 0x20 DUP3 ADD SWAP1 POP SWAP2 SWAP1 POP JUMP JUMPDEST PUSH0 DUP2 SWAP1 POP SWAP2 SWAP1 POP JUMP JUMPDEST PUSH2 0x3F1 DUP2 PUSH2 0x3DF JUMP JUMPDEST DUP3 MSTORE POP POP JUMP JUMPDEST PUSH0 PUSH2 0x402 DUP4 DUP4 PUSH2 0x3E8 JUMP JUMPDEST PUSH1 0x20 DUP4 ADD SWAP1 POP SWAP3 SWAP2 POP POP JUMP JUMPDEST PUSH0 PUSH1 0x20 DUP3 ADD SWAP1 POP SWAP2 SWAP1 POP JUMP JUMPDEST PUSH0 PUSH2 0x424 DUP3 PUSH2 0x3B6 JUMP JUMPDEST PUSH2 0x42E DUP2 DUP6 PUSH2 0x3C0 JUMP JUMPDEST SWAP4 POP PUSH2 0x439 DUP4 PUSH2 0x3D0 JUMP JUMPDEST DUP1 PUSH0 JUMPDEST DUP4 DUP2 LT ISZERO PUSH2 0x469 JUMPI DUP2 MLOAD PUSH2 0x450 DUP9 DUP3 PUSH2 0x3F7 JUMP JUMPDEST SWAP8 POP PUSH2 0x45B DUP4 PUSH2 0x40E JUMP JUMPDEST SWAP3 POP POP PUSH1 0x1 DUP2 ADD SWAP1 POP PUSH2 0x43C JUMP JUMPDEST POP DUP6 SWAP4 POP POP POP POP SWAP3 SWAP2 POP POP JUMP JUMPDEST PUSH0 PUSH1 0x20 DUP3 ADD SWAP1 POP DUP2 DUP2 SUB PUSH0 DUP4 ADD MSTORE PUSH2 0x48E DUP2 DUP5 PUSH2 0x41A JUMP JUMPDEST SWAP1 POP SWAP3 SWAP2 POP POP JUMP JUMPDEST PUSH0 PUSH1 0x40 MLOAD SWAP1 POP SWAP1 JUMP JUMPDEST PUSH0 PUSH0 REVERT JUMPDEST PUSH0 PUSH0 REVERT JUMPDEST PUSH2 0x4B0 DUP2 PUSH2 0x3DF JUMP JUMPDEST DUP2 EQ PUSH2 0x4BA JUMPI PUSH0 PUSH0 REVERT JUMPDEST POP JUMP JUMPDEST PUSH0 DUP2 CALLDATALOAD SWAP1 POP PUSH2 0x4CB DUP2 PUSH2 0x4A7 JUMP JUMPDEST SWAP3 SWAP2 POP POP JUMP JUMPDEST PUSH0 PUSH0 REVERT JUMPDEST PUSH0 PUSH0 REVERT JUMPDEST PUSH0 PUSH1 0x1F NOT PUSH1 0x1F DUP4 ADD AND SWAP1 POP SWAP2 SWAP1 POP JUMP JUMPDEST PUSH32 0x4E487B7100000000000000000000000000000000000000000000000000000000 PUSH0 MSTORE PUSH1 0x41 PUSH1 0x4 MSTORE PUSH1 0x24 PUSH0 REVERT JUMPDEST PUSH2 0x51F DUP3 PUSH2 0x4D9 JUMP JUMPDEST DUP2 ADD DUP2 DUP2 LT PUSH8 0xFFFFFFFFFFFFFFFF DUP3 GT OR ISZERO PUSH2 0x53E JUMPI PUSH2 0x53D PUSH2 0x4E9 JUMP JUMPDEST JUMPDEST DUP1 PUSH1 0x40 MSTORE POP POP POP JUMP JUMPDEST PUSH0 PUSH2 0x550 PUSH2 0x496 JUMP JUMPDEST SWAP1 POP PUSH2 0x55C DUP3 DUP3 PUSH2 0x516 JUMP JUMPDEST SWAP2 SWAP1 POP JUMP JUMPDEST PUSH0 PUSH8 0xFFFFFFFFFFFFFFFF DUP3 GT ISZERO PUSH2 0x57B JUMPI PUSH2 0x57A PUSH2 0x4E9 JUMP JUMPDEST JUMPDEST PUSH2 0x584 DUP3 PUSH2 0x4D9 JUMP JUMPDEST SWAP1 POP PUSH1 0x20 DUP2 ADD SWAP1 POP SWAP2 SWAP1 POP JUMP JUMPDEST DUP3 DUP2 DUP4 CALLDATACOPY PUSH0 DUP4 DUP4 ADD MSTORE POP POP POP JUMP JUMPDEST PUSH0 PUSH2 0x5B1 PUSH2 0x5AC DUP5 PUSH2 0x561 JUMP JUMPDEST PUSH2 0x547 JUMP JUMPDEST SWAP1 POP DUP3 DUP2 MSTORE PUSH1 0x20 DUP2 ADD DUP5 DUP5 DUP5 ADD GT ISZERO PUSH2 0x5CD JUMPI PUSH2 0x5CC PUSH2 0x4D5 JUMP JUMPDEST JUMPDEST PUSH2 0x5D8 DUP5 DUP3 DUP6 PUSH2 0x591 JUMP JUMPDEST POP SWAP4 SWAP3 POP POP POP JUMP JUMPDEST PUSH0 DUP3 PUSH1 0x1F DUP4 ADD SLT PUSH2 0x5F4 JUMPI PUSH2 0x5F3 PUSH2 0x4D1 JUMP JUMPDEST JUMPDEST DUP2 CALLDATALOAD PUSH2 0x604 DUP5 DUP3 PUSH1 0x20 DUP7 ADD PUSH2 0x59F JUMP JUMPDEST SWAP2 POP POP SWAP3 SWAP2 POP POP JUMP JUMPDEST PUSH0 PUSH0 PUSH0 PUSH1 0x60 DUP5 DUP7 SUB SLT ISZERO PUSH2 0x624 JUMPI PUSH2 0x623 PUSH2 0x49F JUMP JUMPDEST JUMPDEST PUSH0 PUSH2 0x631 DUP7 DUP3 DUP8 ADD PUSH2 0x4BD JUMP JUMPDEST SWAP4 POP POP PUSH1 0x20 DUP5 ADD CALLDATALOAD PUSH8 0xFFFFFFFFFFFFFFFF DUP2 GT ISZERO PUSH2 0x652 JUMPI PUSH2 0x651 PUSH2 0x4A3 JUMP JUMPDEST JUMPDEST PUSH2 0x65E DUP7 DUP3 DUP8 ADD PUSH2 0x5E0 JUMP JUMPDEST SWAP3 POP POP PUSH1 0x40 DUP5 ADD CALLDATALOAD PUSH8 0xFFFFFFFFFFFFFFFF DUP2 GT ISZERO PUSH2 0x67F JUMPI PUSH2 0x67E PUSH2 0x4A3 JUMP JUMPDEST JUMPDEST PUSH2 0x68B DUP7 DUP3 DUP8 ADD PUSH2 0x5E0 JUMP JUMPDEST SWAP2 POP POP SWAP3 POP SWAP3 POP SWAP3 JUMP JUMPDEST PUSH0 PUSH1 0x20 DUP3 DUP5 SUB SLT ISZERO PUSH2 0x6AA JUMPI PUSH2 0x6A9 PUSH2 0x49F JUMP JUMPDEST JUMPDEST PUSH0 PUSH2 0x6B7 DUP5 DUP3 DUP6 ADD PUSH2 0x4BD JUMP JUMPDEST SWAP2 POP POP SWAP3 SWAP2 POP POP JUMP JUMPDEST PUSH0 DUP2 MLOAD SWAP1 POP SWAP2 SWAP1 POP JUMP JUMPDEST PUSH0 DUP3 DUP3 MSTORE PUSH1 0x20 DUP3 ADD SWAP1 POP SWAP3 SWAP2 POP POP JUMP JUMPDEST PUSH0 DUP2 SWAP1 POP PUSH1 0x20 DUP3 ADD SWAP1 POP SWAP2 SWAP1 POP JUMP JUMPDEST PUSH0 DUP2 MLOAD SWAP1 POP SWAP2 SWAP1 POP JUMP JUMPDEST PUSH0 DUP3 DUP3 MSTORE PUSH1 0x20 DUP3 ADD SWAP1 POP SWAP3 SWAP2 POP POP JUMP JUMPDEST DUP3 DUP2 DUP4 MCOPY PUSH0 DUP4 DUP4 ADD MSTORE POP POP POP JUMP JUMPDEST PUSH0 PUSH2 0x71B DUP3 PUSH2 0x6E9 JUMP JUMPDEST PUSH2 0x725 DUP2 DUP6 PUSH2 0x6F3 JUMP JUMPDEST SWAP4 POP PUSH2 0x735 DUP2 DUP6 PUSH1 0x20 DUP7 ADD PUSH2 0x703 JUMP JUMPDEST PUSH2 0x73E DUP2 PUSH2 0x4D9 JUMP JUMPDEST DUP5 ADD SWAP2 POP POP SWAP3 SWAP2 POP POP JUMP JUMPDEST PUSH0 PUSH1 0x40 DUP4 ADD PUSH0 DUP4 ADD MLOAD DUP5 DUP3 SUB PUSH0 DUP7 ADD MSTORE PUSH2 0x763 DUP3 DUP3 PUSH2 0x711 JUMP JUMPDEST SWAP2 POP POP PUSH1 0x20 DUP4 ADD MLOAD DUP5 DUP3 SUB PUSH1 0x20 DUP7 ADD MSTORE PUSH2 0x77D DUP3 DUP3 PUSH2 0x711 JUMP JUMPDEST SWAP2 POP POP DUP1 SWAP2 POP POP SWAP3 SWAP2 POP POP JUMP JUMPDEST PUSH0 PUSH2 0x795 DUP4 DUP4 PUSH2 0x749 JUMP JUMPDEST SWAP1 POP SWAP3 SWAP2 POP POP JUMP JUMPDEST PUSH0 PUSH1 0x20 DUP3 ADD SWAP1 POP SWAP2 SWAP1 POP JUMP JUMPDEST PUSH0 PUSH2 0x7B3 DUP3 PUSH2 0x6C0 JUMP JUMPDEST PUSH2 0x7BD DUP2 DUP6 PUSH2 0x6CA JUMP JUMPDEST SWAP4 POP DUP4 PUSH1 0x20 DUP3 MUL DUP6 ADD PUSH2 0x7CF DUP6 PUSH2 0x6DA JUMP JUMPDEST DUP1 PUSH0 JUMPDEST DUP6 DUP2 LT ISZERO PUSH2 0x80A JUMPI DUP5 DUP5 SUB DUP10 MSTORE DUP2 MLOAD PUSH2 0x7EB DUP6 DUP3 PUSH2 0x78A JUMP JUMPDEST SWAP5 POP PUSH2 0x7F6 DUP4 PUSH2 0x79D JUMP JUMPDEST SWAP3 POP PUSH1 0x20 DUP11 ADD SWAP10 POP POP PUSH1 0x1 DUP2 ADD SWAP1 POP PUSH2 0x7D2 JUMP JUMPDEST POP DUP3 SWAP8 POP DUP8 SWAP6 POP POP POP POP POP POP SWAP3 SWAP2 POP POP JUMP JUMPDEST PUSH0 PUSH1 0x20 DUP3 ADD SWAP1 POP DUP2 DUP2 SUB PUSH0 DUP4 ADD MSTORE PUSH2 0x834 DUP2 DUP5 PUSH2 0x7A9 JUMP JUMPDEST SWAP1 POP SWAP3 SWAP2 POP POP JUMP JUMPDEST PUSH32 0x4E487B7100000000000000000000000000000000000000000000000000000000 PUSH0 MSTORE PUSH1 0x22 PUSH1 0x4 MSTORE PUSH1 0x24 PUSH0 REVERT JUMPDEST PUSH0 PUSH1 0x2 DUP3 DIV SWAP1 POP PUSH1 0x1 DUP3 AND DUP1 PUSH2 0x880 JUMPI PUSH1 0x7F DUP3 AND SWAP2 POP JUMPDEST PUSH1 0x20 DUP3 LT DUP2 SUB PUSH2 0x893 JUMPI PUSH2 0x892 PUSH2 0x83C JUMP JUMPDEST JUMPDEST POP SWAP2 SWAP1 POP JUMP JUMPDEST PUSH0 DUP2 SWAP1 POP DUP2 PUSH0 MSTORE PUSH1 0x20 PUSH0 KECCAK256 SWAP1 POP SWAP2 SWAP1 POP JUMP JUMPDEST PUSH0 PUSH1 0x20 PUSH1 0x1F DUP4 ADD DIV SWAP1 POP SWAP2 SWAP1 POP JUMP JUMPDEST PUSH0 DUP3 DUP3 SHL SWAP1 POP SWAP3 SWAP2 POP POP JUMP JUMPDEST PUSH0 PUSH1 0x8 DUP4 MUL PUSH2 0x8F5 PUSH32 0xFFFFFFFFFFFFFFFFFFFFFFFFFFFFFFFFFFFFFFFFFFFFFFFFFFFFFFFFFFFFFFFF DUP3 PUSH2 0x8BA JUMP JUMPDEST PUSH2 0x8FF DUP7 DUP4 PUSH2 0x8BA JUMP JUMPDEST SWAP6 POP DUP1 NOT DUP5 AND SWAP4 POP DUP1 DUP7 AND DUP5 OR SWAP3 POP POP POP SWAP4 SWAP3 POP POP POP JUMP JUMPDEST PUSH0 DUP2 SWAP1 POP SWAP2 SWAP1 POP JUMP JUMPDEST PUSH0 DUP2 SWAP1 POP SWAP2 SWAP1 POP JUMP JUMPDEST PUSH0 PUSH2 0x943 PUSH2 0x93E PUSH2 0x939 DUP5 PUSH2 0x917 JUMP JUMPDEST PUSH2 0x920 JUMP JUMPDEST PUSH2 0x917 JUMP JUMPDEST SWAP1 POP SWAP2 SWAP1 POP JUMP JUMPDEST PUSH0 DUP2 SWAP1 POP SWAP2 SWAP1 POP JUMP JUMPDEST PUSH2 0x95C DUP4 PUSH2 0x929 JUMP JUMPDEST PUSH2 0x970 PUSH2 0x968 DUP3 PUSH2 0x94A JUMP JUMPDEST DUP5 DUP5 SLOAD PUSH2 0x8C6 JUMP JUMPDEST DUP3 SSTORE POP POP POP POP JUMP JUMPDEST PUSH0 PUSH0 SWAP1 POP SWAP1 JUMP JUMPDEST PUSH2 0x987 PUSH2 0x978 JUMP JUMPDEST PUSH2 0x992 DUP2 DUP5 DUP5 PUSH2 0x953 JUMP JUMPDEST POP POP POP JUMP JUMPDEST JUMPDEST DUP2 DUP2 LT ISZERO PUSH2 0x9B5 JUMPI PUSH2 0x9AA PUSH0 DUP3 PUSH2 0x97F JUMP JUMPDEST PUSH1 0x1 DUP2 ADD SWAP1 POP PUSH2 0x998 JUMP JUMPDEST POP POP JUMP JUMPDEST PUSH1 0x1F DUP3 GT ISZERO PUSH2 0x9FA JUMPI PUSH2 0x9CB DUP2 PUSH2 0x899 JUMP JUMPDEST PUSH2 0x9D4 DUP5 PUSH2 0x8AB JUMP JUMPDEST DUP2 ADD PUSH1 0x20 DUP6 LT ISZERO PUSH2 0x9E3 JUMPI DUP2 SWAP1 POP JUMPDEST PUSH2 0x9F7 PUSH2 0x9EF DUP6 PUSH2 0x8AB JUMP JUMPDEST DUP4 ADD DUP3 PUSH2 0x997 JUMP JUMPDEST POP POP JUMPDEST POP POP POP JUMP JUMPDEST PUSH0 DUP3 DUP3 SHR SWAP1 POP SWAP3 SWAP2 POP POP JUMP JUMPDEST PUSH0 PUSH2 0xA1A PUSH0 NOT DUP5 PUSH1 0x8 MUL PUSH2 0x9FF JUMP JUMPDEST NOT DUP1 DUP4 AND SWAP2 POP POP SWAP3 SWAP2 POP POP JUMP JUMPDEST PUSH0 PUSH2 0xA32 DUP4 DUP4 PUSH2 0xA0B JUMP JUMPDEST SWAP2 POP DUP3 PUSH1 0x2 MUL DUP3 OR SWAP1 POP SWAP3 SWAP2 POP POP JUMP JUMPDEST PUSH2 0xA4B DUP3 PUSH2 0x6E9 JUMP JUMPDEST PUSH8 0xFFFFFFFFFFFFFFFF DUP2 GT ISZERO PUSH2 0xA64 JUMPI PUSH2 0xA63 PUSH2 0x4E9 JUMP JUMPDEST JUMPDEST PUSH2 0xA6E DUP3 SLOAD PUSH2 0x869 JUMP JUMPDEST PUSH2 0xA79 DUP3 DUP3 DUP6 PUSH2 0x9B9 JUMP JUMPDEST PUSH0 PUSH1 0x20 SWAP1 POP PUSH1 0x1F DUP4 GT PUSH1 0x1 DUP2 EQ PUSH2 0xAAA JUMPI PUSH0 DUP5 ISZERO PUSH2 0xA98 JUMPI DUP3 DUP8 ADD MLOAD SWAP1 POP JUMPDEST PUSH2 0xAA2 DUP6 DUP3 PUSH2 0xA27 JUMP JUMPDEST DUP7 SSTORE POP PUSH2 0xB09 JUMP JUMPDEST PUSH1 0x1F NOT DUP5 AND PUSH2 0xAB8 DUP7 PUSH2 0x899 JUMP JUMPDEST PUSH0 JUMPDEST DUP3 DUP2 LT ISZERO PUSH2 0xADF JUMPI DUP5 DUP10 ADD MLOAD DUP3 SSTORE PUSH1 0x1 DUP3 ADD SWAP2 POP PUSH1 0x20 DUP6 ADD SWAP5 POP PUSH1 0x20 DUP2 ADD SWAP1 POP PUSH2 0xABA JUMP JUMPDEST DUP7 DUP4 LT ISZERO PUSH2 0xAFC JUMPI DUP5 DUP10 ADD MLOAD PUSH2 0xAF8 PUSH1 0x1F DUP10 AND DUP3 PUSH2 0xA0B JUMP JUMPDEST DUP4 SSTORE POP JUMPDEST PUSH1 0x1 PUSH1 0x2 DUP9 MUL ADD DUP9 SSTORE POP POP POP JUMPDEST POP POP POP POP POP POP JUMP JUMPDEST PUSH0 DUP3 DUP3 MSTORE PUSH1 0x20 DUP3 ADD SWAP1 POP SWAP3 SWAP2 POP POP JUMP JUMPDEST PUSH0 PUSH2 0xB2B DUP3 PUSH2 0x6E9 JUMP JUMPDEST PUSH2 0xB35 DUP2 DUP6 PUSH2 0xB11 JUMP JUMPDEST SWAP4 POP PUSH2 0xB45 DUP2 DUP6 PUSH1 0x20 DUP7 ADD PUSH2 0x703 JUMP JUMPDEST PUSH2 0xB4E DUP2 PUSH2 0x4D9 JUMP JUMPDEST DUP5 ADD SWAP2 POP POP SWAP3 SWAP2 POP POP JUMP JUMPDEST PUSH0 PUSH1 0x40 DUP3 ADD SWAP1 POP DUP2 DUP2 SUB PUSH0 DUP4 ADD MSTORE PUSH2 0xB71 DUP2 DUP6 PUSH2 0xB21 JUMP JUMPDEST SWAP1 POP DUP2 DUP2 SUB PUSH1 0x20 DUP4 ADD MSTORE PUSH2 0xB85 DUP2 DUP5 PUSH2 0xB21 JUMP JUMPDEST SWAP1 POP SWAP4 SWAP3 POP POP POP JUMP INVALID LOG2 PUSH5 0x6970667358 0x22 SLT KECCAK256 PC NOT CALLDATACOPY PUSH22 0x53F8021720B6C51A154CAB7CB4EC9AC0BADE4B47E6E6 SWAP5 GT CALLDATALOAD 0xAE 0xFC MULMOD PUSH5 0x736F6C6343 STOP ADDMOD 0x1E STOP CALLER "
		},
		"gasEstimates": {
			"creation": {
				"codeDepositCost": "602400",
				"executionCost": "636",
				"totalCost": "603036"
			},
			"external": {
				"access(bytes32)": "infinite",
				"getAllPatients()": "infinite",
				"index(bytes32,string,string)": "infinite"
			}
		},
		"methodIdentifiers": {
			"access(bytes32)": "6d43c4c9",
			"getAllPatients()": "18a231a9",
			"index(bytes32,string,string)": "696b3141"
		}
	},
	"abi": [
		{
			"anonymous": false,
			"inputs": [
				{
					"indexed": true,
					"internalType": "bytes32",
					"name": "patientHash",
					"type": "bytes32"
				},
				{
					"indexed": false,
					"internalType": "string",
					"name": "dataGeneratorID",
					"type": "string"
				},
				{
					"indexed": false,
					"internalType": "string",
					"name": "recordID",
					"type": "string"
				}
			],
			"name": "RecordIndexed",
			"type": "event"
		},
		{
			"inputs": [
				{
					"internalType": "bytes32",
					"name": "hashedPatientID",
					"type": "bytes32"
				}
			],
			"name": "access",
			"outputs": [
				{
					"components": [
						{
							"internalType": "string",
							"name": "dataGeneratorID",
							"type": "string"
						},
						{
							"internalType": "string",
							"name": "recordID",
							"type": "string"
						}
					],
					"internalType": "struct EHRSharing.Record[]",
					"name": "",
					"type": "tuple[]"
				}
			],
			"stateMutability": "view",
			"type": "function"
		},
		{
			"inputs": [],
			"name": "getAllPatients",
			"outputs": [
				{
					"internalType": "bytes32[]",
					"name": "",
					"type": "bytes32[]"
				}
			],
			"stateMutability": "view",
			"type": "function"
		},
		{
			"inputs": [
				{
					"internalType": "bytes32",
					"name": "hashedPatientID",
					"type": "bytes32"
				},
				{
					"internalType": "string",
					"name": "dataGeneratorID",
					"type": "string"
				},
				{
					"internalType": "string",
					"name": "recordID",
					"type": "string"
				}
			],
			"name": "index",
			"outputs": [],
			"stateMutability": "nonpayable",
			"type": "function"
		}
	]
}